:020000040800F2
:10000000100A00208D0100083B2300087920000819
:10001000392300088D03000869280008000000004B
:100020000000000000000000000000003F23000866
:10003000D9030008000000003D2300084123000808
:10004000A7010008A7010008A7010008A7010008F0
:10005000A7010008A7010008A7010008A7010008E0
:10006000A7010008A7010008A701000891030008E4
:10007000A7010008A701000899030008A5030008CC
:10008000A7010008A7010008A7010008A7010008B0
:10009000A7010008A7010008A7010008A7010008A0
:1000A000A7010008D9230008D1230008A7010008F0
:1000B000E5230008A7010008A7010008A701000820
:1000C000A7010008A7010008A7010008A701000870
:1000D000A701000861280008A7010008A70100087F
:1000E000A7010008A7010008A701000800F002F816
:1000F00000F03CF80AA090E8000C82448344AAF186
:100100000107DA4501D100F031F8AFF2090EBAE883
:100110000F0013F0010F18BFFB1A43F0010318473B
:100120003C3C00005C3C0000103A24BF78C878C119
:10013000FAD8520724BF30C830C144BF04680C60ED
:10014000704700000023002400250026103A28BF35
:1001500078C1FBD8520728BF30C148BF0B60704739
:100160001FB500F08FF81FBD10B510BD00F0B7F837
:100170001146FFF7F5FF02F03DFF00F0D5F803B49C
:10018000FFF7F2FF03BC00F09BF80000094880472E
:1001900009480047FEE7FEE7FEE7FEE7FEE7FEE769
:1001A000FEE7FEE7FEE7FEE704480549054A064B81
:1001B00070470000CD230008ED0000081004002067
:1001C000100A0020100600201006002010B5203A6A
:1001D000C0F00B80B1E81850A0E81850B1E81850F2
:1001E000A0E81850203ABFF4F5AF5FEA027C24BFC4
:1001F000B1E81850A0E8185044BF18C918C0BDE8AD
:1002000010405FEA827C24BF51F8043B40F8043B75
:1002100008BF7047D20728BF31F8023B48BF11F82A
:10022000012B28BF20F8023B48BF00F8012B704784
:100230004FF0000200B5134694469646203922BF7F
:10024000A0E80C50A0E80C50B1F12001BFF4F7AFCA
:10025000090728BFA0E80C5048BF0CC05DF804EBAC
:10026000890028BF40F8042B08BF704748BF20F81A
:10027000022B11F0804F18BF00F8012B7047704718
:100280007047704770B5064C7C44064D7D4403E0D2
:10029000206820448047241DAC42F9D170BD000085
:1002A000F03A0000F43A000010B500F00FF80068D2
:1002B00010BD10B5044600F009F8046010BD000040
:1002C00001491820ABBEFEE7260002000048704737
:1002D000800000200048704780000020704775466D
:1002E000FFF7F8FFAE4605006946534620F00700C9
:1002F000854618B020B5FFF757FFBDE820404FF006
:1003000000064FF000074FF000084FF0000BAC461E
:10031000ACE8C009ACE8C009ACE8C009ACE8C00969
:1003200021F007018D46704710B50446AFF30080F9
:100330002046BDE81040FFF722BFB0B50446206854
:10034000816811F0010F1FD0816821F001018160E7
:1003500000F018FC05462068806810F0010F13D0EB
:1003600000F010FC401B0328F5D32068806810F0D3
:10037000010FF0D0A06A40F01000A062E06A40F0E7
:100380000100E0620120B0BD0020B0BDFEE700002A
:10039000C24800F0EBB900BF014800F0E7B900BF68
:1003A000F0010020014800F0E1B900BFE0000020AA
:1003B00010B5D0E90FCE012404FA0EF4CCF80440B5
:1003C0000468636040681028084608BF1046A060B3
:1003D00008BF0A46E26010BD7047EFF3108072B6A6
:1003E000FEE70000F8B50022009290F82420012AD0
:1003F00001D1022178E0012280F824204B68062BED
:100400000FD8076803EB8303053B3A4652F834EFF5
:100410000C6804FA03FC1F2404FA03F32EEA030E0B
:100420001CE00A6807680C2B0BD803EB8303233B03
:1004300002FA03FC1F2202FA03F33A4652F8304F45
:100440000AE003EB8303413B02FA03FC1F2202FA9A
:1004500003F33A4652F82C4F24EA030E4EEA0C03FB
:1004600007F1100507244FF0000C13600A68896833
:1004700002EB4203092A88BF1E3B092A88BF07F105
:100480000C059C4099402E68A6433143296022F018
:10049000010110294FF0000124D11549A1F10803F1
:1004A0009F4205D0816A41F020018162012119E05B
:1004B0000B6813F4000F14D10B68102A43F40003E7
:1004C0000B600ED10B4909680B4AB1FBF2F101EB4D
:1004D0008101490001E0009901390091009900294A
:1004E000F9D1002180F824C0C8B201B0F0BD00BF2E
:1004F000082401407400002040420F00B0B50446BB
:10050000BCB3254655F8280F30B90020E06284F8C6
:100510002400204600F07AF82046FFF70EFFA26A7A
:10052000A16A40BB12F0100025D141F20210002256
:1005300021EA000040F00200A062D4E90101012993
:1005400008BF4FF48072B1F5807F08BF0A46E369A7
:100550001843237B40EA430C207D012816D173B158
:10056000A06A40F02000A062E06A40F00100E06272
:100570000CE00120B0BD41F0100101203CE0A06979
:100580001E4B03EB4030104340F400622368B1F58A
:10059000807F586820F4694040EA020058609868FB
:1005A000174A00EA020040EA0C00986018BF0129CF
:1005B00004D12069134901EB005100E00021D86A01
:1005C00020F470000843D86298680F4908406045DD
:1005D00006D100200122E062A16A62F301010BE072
:1005E000A06A20F0120040F01000A06254F82C0F16
:1005F00040F00101012025462960B0BD00E0FFFF69
:10060000FDF7E1FF0000F0FFFE0E1FFF70B586B0A2
:1006100000260446CDE90466CDE902661D4822683D
:1006200000F5E0518A4233D11B490A6842F4007256
:100630000A600A6802F400720192019A0A6842F0A4
:1006400004020A60096801F0040101910199032183
:10065000CDE9021102A900F0AFF9104D8E488021BA
:100660004FF480724FF480634FF0200C4FF4005E23
:10067000C5E9000605F11000C5E9026180E80C50EB
:10068000284600F013F908B1FFF7A7FE25626C6257
:1006900006B070BD0008014018100240980200200A
:1006A00090F82110022912D1016801230A6822F072
:1006B0000E020A600A6822F001020A60D0E90F12F5
:1006C00003FA02F24A60002180F8213002E004219E
:1006D00081630121002280F8202008467047000035
:1006E00080B590F8211002291DD103684FF0010C4C
:1006F000196821F00E011960196821F001011960D3
:10070000644A65498B4212D064498B4211D06449D6
:100710008B4210D063498B4210D063498B4210D179
:100720004FF4803115E00421816301211BE0012198
:100730000FE010210DE04FF480710AE04FF480517A
:1007400007E002F1680E4FF08071734508BF4FF467
:1007500080111160002180F821C080F82010426BC8
:100760000AB190470021084680BD00BFF0B5D0E92E
:100770000F311C6802681568464F15F0040F1EBF44
:1007800004268E4016EA040619D0116811F0200FD5
:1007900002BF116821F0040111603F498A4259D01B
:1007A0003E498A4245D03E498A4244D03D498A4228
:1007B00044D03D498A4244D14FF480214BE0AE07FA
:1007C00020D502268E4026401CD0116811F0200F43
:1007D00006D1116821F00A011160012180F8211071
:1007E0002D498A423AD02D498A4239D02C498A4231
:1007F00038D02C498A4238D02B498A4238D14FF41C
:1008000000313DE02F0744D508278F40274008BF1F
:10081000F0BD176827F00E071760012202FA01F1F8
:1008200059600021826380F8212080F82010016B3C
:100830002BE040210FE04FF480610CE04FF4804149
:1008400009E007F168034FF080619A4208BF4FF456
:10085000800100E004213960C16A16E002210FE046
:1008600020210DE04FF400710AE04FF4005107E041
:1008700007F168034FF000719A4208BF4FF400116E
:100880003960002180F82010816A11B1BDE8F04084
:100890000847F0BD04000240080002401C0002406E
:1008A000300002404400024058000240014601204E
:1008B000002908BF7047B0B50A68174B02EB030C5C
:1008C0001423BCFBF3F39B000B64144BCB63022398
:1008D00081F8213043F6F073D2F800C02CEA030C03
:1008E000D1E9013ED1E9034543EA0C0343EA0E0393
:1008F00023432B434D692B438D692B43CD692B43F8
:10090000136000228A6381F8210081F820200020F2
:10091000BDE8B040704700BFF8FFFDBF00000240D7
:1009200010B5044694F82000012820D0012084F856
:10093000200094F82100012816D1022084F821001B
:100940000020A063D4F800C0DCF8000020F0010013
:10095000CCF800002046FFF72BFD2068E26A016812
:100960003AB141F00E010AE0002084F82000022094
:100970000BE021F004010160016841F00A0101600F
:10098000016841F0010101600020C0B210BD00000B
:1009900070B505466E1C00F0F5F804461EB195488A
:1009A0000078054401E04FF0FF3500F0EBF8001B44
:1009B000A842FAD370BD00BF2DE9FE4F614A04235F
:1009C0004FF0000B4FF0010C4FF00F0E4FF0000AEC
:1009D0004FF00008904200F1140208BF0323019277
:1009E00000930A6832FA08F308BFBDE8FE8F0CFADC
:1009F00008F73A4200F0A1804A68032A16D9112A62
:100A000026D0122A28D0504B9A4213D04F4B9A42EC
:100A10001CBF4F4B9A420DD04E4B9A421CBF4E4BBF
:100A20009A4207D04D4B9A4204D022E0DFE802F010
:100A300002181B1F8A6842B1012A019A4FF0080A66
:100A400008BF00F11002176013E04FF0040A10E035
:100A5000CA6802F1040A0CE0CA6802F10C0A08E054
:100A6000D1F80CA005E0CA6802F1080A01E04FF0D5
:100A7000000AB8F1080F0246454628BF0432136841
:100A8000374C28BF2544AE000EFA06F50AFA06F6E2
:100A9000AB4333431360CA79D2064ED5644A4FEA5A
:100AA00098060BF00C090EFA09F5136843F00103E0
:100AB0001360126802F001020292029B294CA4F515
:100AC0007E7353F8262022EA050C274A90420AD06A
:100AD000264A90420AD0264ADDF800E0904208BF3C
:100AE0004FF0020E04E04FF0000E01E04FF0010E57
:100AF0000EFA09F24FF00F0E42EA0C024FF0010C11
:100B000043F826204A681B4BA66812F4801F0CBFCE
:100B1000BE433E43A66096021E6854BFBE433E439A
:100B20001E609303636854BFBB433B43D2036360BF
:100B3000226854BFBA433A4322600BF1040B08F118
:100B400001084EE7001401400000111000001210CF
:100B500000002110000022100000311000003210AF
:100B6000F8FFFF3F0004014000080140000C014075
:100B7000001001400C040140002A08BF0904016173
:100B8000704700001B488068704700BF1948017813
:100B9000826811448160704780B50748016841F060
:100BA00010010160032000F081F80F2000F006F82A
:100BB00000F022F8002080BD0020024070B50D4EEC
:100BC00004464FF47A713078B1FBF0F0D5490968EA
:100BD000B1FBF0F000F034FC01250F2C08D838B937
:100BE0004FF0FF3021460022002500F033F87460FA
:100BF000284670BD0000002082B00D480222016826
:100C000041F001010160016801F0010101910199C8
:100C1000416841F080514160406800F08050009090
:100C200000980448016862F31A61016002B07047DD
:100C30001810024004000140002808DB00F01F01EA
:100C40000122400902FA01F1014A42F820107047DE
:100C500000E100E0B0B5144C1A4D00F00F03B0F104
:100C6000FF3FA3F104032B4403F10C03C8BF031996
:100C70002868C0F30220051DC41E80F00700072D60
:100C80004FF0010538BF0024042828BF042005FACE
:100C900000F00138084005FA04F10F31A04011407E
:100CA000084300011870B0BD00E400E005494FF6AC
:100CB000FF030A681A4060F30A22034810430860E1
:100CC000704700BF0CED00E00000FA052DE9FC4183
:100CD00004462078A34EC0075BD0B069384F10F0AF
:100CE000805F0BD1B0694FF0010840F08050B061D7
:100CF000B06900F080500190019801E04FF00008C9
:100D0000386810F4807F11D1386840F48070386002
:100D1000FFF738FF0546386810F4807F06D1FFF7EB
:100D200031FF401B6428F6D9032045E0F06910F438
:100D3000407020D0616801F4407188421BD0F06996
:100D4000204901220A60002210F0010F0A6020F4FD
:100D50004071F1610FD0FFF715FF054641F288376A
:100D6000F06910F0020F06D1FFF70CFF411B0320C2
:100D7000B942F5D920E0F0696168B8F1010F20F4BB
:100D8000407040EA0100F06102BFB06920F080507D
:100D9000B061206810F0020F05D03168A26821F41C
:100DA000404111433160C00605D53068E16820F448
:100DB0008000084330600020C0B202B0BDE8F0817E
:100DC00000700040400442422DE9F041044688464C
:100DD000002C00F08880464F4FF48050395801F0C5
:100DE000070141450AD2395821F0070141EA0801BB
:100DF0003950385800F00700404574D1206810F091
:100E0000020F11D0410742BF796841F4E061796077
:100E1000010742BF796841F4605179607968A2683E
:100E200021F0F00111437960C00727D060680128E4
:100E300004D1396811F4003F08D154E03968022820
:100E400002D1890102D44EE089074CD5796821F09E
:100E5000030108437860FFF795FE064641F28835A6
:100E60007868616800F00C00B0EB810F06D0FFF7E6
:100E700089FE801BA842F3D9032035E04FF480504F
:100E8000395801F0070141450AD9395821F00701C5
:100E900041EA08013950385800F00700404522D196
:100EA000206810F0040F05D07968E26821F4E06151
:100EB00011437960000706D57868216920F46050F5
:100EC00040EAC100786000F031F87968094AC1F35E
:100ED0000311515CC8401349086007480068FFF7D8
:100EE0006DFE002000E00120C0B2BDE8F08100BF2F
:100EF00000100240223A00080400002009480A4A73
:100F0000006818490968C1F30221515CC840704764
:100F1000FA48054A0068F7490968C1F3C221515CE3
:100F2000C840704774000020323A00080D490A6832
:100F30000D4802F00C03082B18BF7047C2F3834C16
:100F40000AA312F4803F13F80C3002D10C48584326
:100F50007047096809A25843C1F34041515CB0FB96
:100F6000F1F070470410024000127A0002030405F9
:100F7000060708090A0B0C0D0E0F101001020000E5
:100F800000093D002DE9FE4F8246BAF1000F00F046
:100F900065819AF80000D64ED64FC00750D0386809
:100FA00000F00C00042819D0386800F00C00082864
:100FB00003D1386810F4803F10D1DAF80400A8B1EA
:100FC000B0F5803F06D03168B0F5A02F24D141F4B0
:100FD00080203060306840F4803023E0306810F4C6
:100FE000003F2DD0DAF8040050BB37E1306820F420
:100FF00080303060306820F480203060FFF7C2FD20
:101000000546306810F4003F1AD0FFF7BBFD411BC6
:1010100003206429F5D922E121F480303060306862
:1010200020F480203060FFF7ADFD0546306810F4F5
:10103000003F05D1FFF7A6FD401B6428F6D9EBE081
:101040009AF800008007AC48834632D5386810F023
:101050000C0F1DD0386800F00C00082804BF386859
:1010600010F4803F14D0DAF81000002800F09580CA
:10107000012059460860FFF785FD0546306810F0ED
:10108000020F0ED1FFF77EFD401B0228F6D9C3E008
:10109000306810F0020F1CBFDAF81000012840F091
:1010A000DD803068DAF8141020F0F80040EAC10062
:1010B00030609AF80000000731D5DAF8180080B1E6
:1010C00001205946C1F88004FFF75CFD0546386AE7
:1010D00010F0020F16D1FFF755FD401B0228F6D97C
:1010E0009AE000205946C1F88004FFF74BFD054601
:1010F000386A10F0020F12D0FFF744FD401B02289F
:10110000F6D989E07D484FF4FA510068B0FBF1F060
:10111000029000BF0298411E00280291F9D19AF86E
:101120000000400740F18180B86910F0805F0BD16A
:10113000B8694FF0010840F08050B861B86900F01C
:1011400080500190019801E04FF000086C48305841
:1011500010F4807F12D16A48315841F480713150C7
:10116000FFF710FD05466648305810F4807F05D122
:10117000FFF708FD401B6428F5D94DE0DAF80C00B4
:10118000E8B1012805D0F969052830D141F0040003
:10119000F861F86940F001002FE00020594608602E
:1011A000FFF7F0FC0546306810F0020F3FF481AF06
:1011B000FFF7E8FC411B03200229F4D94FE0F8694E
:1011C00020F00100F861F86920F00400F861FFF7F1
:1011D000D9FC054641F28839F86910F0020F1DD09C
:1011E000FFF7D0FC411B03204945F5D937E021F03A
:1011F0000100F861F86920F00400F861FFF7C2FC13
:10120000054641F28834F86910F0020F06D1FFF765
:10121000B9FC401BA042F6D9032020E0B8F1010F31
:1012200002BFB86920F08050B861DAF81C40594616
:10123000002C5AD0386800F00C00082813D1012C7B
:101240000CD03868DAF8201000F480328A4205D1D8
:10125000DAF8241000F47010884246D00120C0B2A1
:1012600003B0BDE8F08F00200866FFF78BFC054651
:10127000022C0AD1306810F0007F11D0FFF782FCF9
:10128000411B03200229F5D9E9E7306810F0007FFF
:101290002BD0FFF777FC411B03200229F5D9DEE7AD
:1012A000DAF82000B0F5803F06D13968DAF8082076
:1012B00021F4003111433960396821F47411084375
:1012C000DAF82410084338600120CBF86000FFF7FB
:1012D00059FC0446306810F0007F06D1FFF752FC3D
:1012E000011B03200229F5D9B9E70020B7E700BFA9
:1012F000001002400410024000004242740000202E
:101300000060FEFF70B5044634B1606A30B1002061
:10131000206104F1140007E001264CE06068B0F59C
:10132000827F03D004F11C000021016000264FF0F1
:10133000000CA66294F8510038B9204684F8506039
:1013400000F03CF8A06A00F4005C022184F851101F
:1013500021680A6822F040020A60D4E90123D4E936
:10136000030502F4827203F4044300F400601A439C
:10137000104305F002021043626902F001021043BB
:10138000A26902F400731843E36903F038031843B9
:10139000236A03F08003184340EA0C00086004202D
:1013A00000EA12404860C86920F40060C86101206A
:1013B000666584F85100304670BD000070B586B097
:1013C0000026CDE90466CDE90266194C006804F5F3
:1013D000105188422AD1174802AD016841F480516A
:1013E0000160016801F4805101910199016841F0A7
:1013F000080101602946006800F00800019001988A
:101400002820029002200390032005902046FFF739
:10141000D3FA10202946CDE9020620460496FFF7AC
:10142000CBFA05480168054A1143016006B070BD5A
:10143000000C0140181002400400014001000007A8
:10144000411E0020B0EB116F1CBF01207047044A01
:10145000F023516003490B700721906011607047C1
:1014600010E000E023ED00E07047704790F83C206A
:10147000012A01D102211FE0B0B501F10805D1E92F
:1014800000CE3CCDC96923F47C5322F470521A4338
:101490002EF4F0431A432CF4E0431A4324F4C043DF
:1014A0001A432A4322F48042114302685164002106
:1014B00080F83C10BDE8B040C8B2704790F83C30AE
:1014C0000222012B28D080B5012380F83C3080F81F
:1014D0003D2002685368D2F808C0B2F1804F23F073
:1014E000700E0B6843EA0E035360BDE8804008D0DD
:1014F000664B9A421CBF664B9A4202D0654B9A4299
:1015000004D149682CF08003194391600121002225
:1015100080F83D1080F83C20D0B2704739B10322EA
:10152000082908BF0222042908BF012200E0002286
:10153000024492F84220012A1CBF01207047022277
:1015400041B1082909D0042914BF80F8452080F84A
:10155000432004E080F8422001E080F84420006845
:1015600001F01F01042202FA01F1026AB0F1804F7A
:1015700022EA01020262026A41EA02010162416C4E
:1015800041F40041416408D0404988421CBF4049B1
:10159000884202D03F49884204D1816801F00701A6
:1015A000062903D0016841F0010101600020704765
:1015B00010B5044634B394F83D0028B9002084F8EF
:1015C0003C00204600F020F80220211D84F83D0058
:1015D000206800F00DFF012084F8460084F83E00EA
:1015E00084F83F0084F8400084F8410084F8420009
:1015F00084F8430084F8440084F8450084F83D00F2
:10160000002010BD012010BD0068B0F1804F18BF50
:101610007047E0B509480022016841F0010101600E
:101620000021006800F00100019001981C20FFF7E4
:1016300011FB1C20BDE88C40FFF7FEBA1C100240D5
:1016400090F83D1001291CBF01207047022180F84D
:101650003D100068C168B0F1804F41F00101C160E8
:1016600008D00A4988421CBF0949884202D009496A
:10167000884204D1816801F00701062903D001687E
:1016800041F0010101600020704700BF00040040EC
:10169000002C01400008004010B50446022094F8D8
:1016A0003C20012A70D001224FF6777384F83C2049
:1016B00084F83D00206882689A4382600A6812B309
:1016C000102A20D0202A18BF302A1CD0402A21D02E
:1016D000502A2BD0602A35D0B2F5005F3ED0B2F54B
:1016E000805F4AD0702A51D1D1E90123C9681A43D9
:1016F00042EA0121826822F47F42114381608168BD
:1017000041F0770138E0816821F07701114341F021
:10171000070131E04B68CA68194600F053FF2068A2
:10172000816821F0770141F0470125E04B68CA68E4
:10173000194600F047FF2068816821F0770141F0E9
:10174000570119E04B68CA68194600F04CFF206841
:10175000816821F0770141F067010DE0D1E90123B3
:10176000C9681A4342EA0121826822F47F42114388
:101770008160816841F4804181600020012184F80A
:101780003D10002184F83C10C0B210BD0120F5E7E7
:10179000704710B504462068016911F0020F1CBFA4
:1017A000C16811F0020F15D06FF002010161012133
:1017B0002177806910F0030F03D02046FFF7E8FF80
:1017C00005E0204600F0E4F8204600F081F9002012
:1017D00020772068016911F0040F1CBFC16811F067
:1017E000040F15D06FF00401016102212177806997
:1017F00010F4407F03D02046FFF7CAFF05E02046E3
:1018000000F0C6F8204600F063F900202077206839
:10181000016911F0080F1CBFC16811F0080F15D045
:101820006FF00801016104212177C06910F0030FF6
:1018300003D02046FFF7ACFF05E0204600F0A8F8F3
:10184000204600F045F9002020772068016911F05A
:10185000100F1CBFC16811F0100F15D06FF01001F0
:10186000016108212177C06910F4407F03D0204630
:10187000FFF78EFF05E0204600F08AF8204600F0D2
:1018800027F9002020772068016911F0010F1CBFA3
:10189000C16811F0010F06D06FF00101016120460F
:1018A00000F06AF92068016911F0800F1CBFC1685F
:1018B00011F0800F06D06FF0800101612046FFF724
:1018C000D3FD2068016911F0400F1CBFC16811F001
:1018D000400F06D06FF040010161204600F08EF904
:1018E0002068016911F0200F1CBFC16811F0200FA2
:1018F00000D110BD6FF0200101612046BDE810400D
:10190000FFF7B3BD70B586B00021CDE90411CDE974
:1019100002111B4C006804F5105188422DD16B4810
:1019200002AD0226016841F004010160016801F086
:10193000040101910199016841F008010160294603
:10194000006800F00800019001984FF4F0600290E8
:10195000204603960596FFF72FF803202946CDE988
:10196000020604F580600596FFF726F80548016831
:10197000054A1140054A1143016006B070BD00BF21
:1019800000080140040001403FFFFFF8400000074D
:1019900070470000B0B504460D4694F83C0001289D
:1019A00001D1022041E04FEAB2010120032984F86D
:1019B0003C0037D8DFE801F0020A122220682946ED
:1019C00000F04EFD206850F8181F0EE020682946F0
:1019D00000F072FD206850F8181F16E020682946B4
:1019E00000F09AFD206850F81C1F41F008010160CA
:1019F000016821F00401016029690FE0206829468F
:101A000000F0BAFD206850F81C1F41F4006101602D
:101A1000016821F4806101602969090202681143AB
:101A200001600020002184F83C10C0B2B0BD10B5A8
:101A3000044634B394F83D0028B9002084F83C00F3
:101A4000204600F021F80220211D84F83D00206886
:101A500000F0CEFC012084F8460084F83E0084F8B3
:101A60003F0084F8400084F8410084F8420084F884
:101A7000430084F8440084F8450084F83D000020C9
:101A800010BD012010BD000000683849884218BF11
:101A90007047E0B50D480022016841F40061016023
:101AA0000021006800F40060019001981920FFF700
:101AB000D1F81920FFF7C0F81A2000210022FFF703
:101AC000C9F81A20BDE88C40FFF7B6B818100240DC
:101AD0007047000039B10322082908BF02220429F7
:101AE00008BF012200E00022024492F83E20012AB1
:101AF0001CBF01207047022241B1082909D00429E6
:101B000014BF80F8412080F83F2004E080F83E2098
:101B100001E080F84020006801F01F01012202FA74
:101B200001F1026A8A430262026A114301620F49AB
:101B3000884202BF4A6C42F400424A64B0F1804FCE
:101B400008D00B4988421CBF0849884202D0094985
:101B5000884204D1816801F00701062903D0016899
:101B600041F0010101600020704700BF002C0140DE
:101B700000040040000800401649884218BF704722
:101B800010B58AB000F066FF04461348046013489D
:101B900000680190124800680290124800680390A3
:101BA00011480068049011480068059010480068CA
:101BB00006901048006807900F4803C801F0BEFC6B
:101BC000CDE9080401A8092100F050FE0AB0BDE8E3
:101BD000104070477C0300206402002018000020A1
:101BE0001C00002020000020240000203C000020D9
:101BF000400000204400002068000020704770472B
:101C000070470000F8B5044620680168C26845695D
:101C100001F02F0602F02003202E05D123B120462B
:101C2000BDE8F84000F075BD5FEA017C08D005F022
:101C3000010E12F4907F8EF0010559D1002D57D07E
:101C40001140CA06226B3DD5012A3BD100210091EB
:101C500001680091416800910099416911F0400FBD
:101C600040F0A580A18DE28DE38D002B00F00F8167
:101C7000891A89B209B90AE1206850E8030F22687D
:101C800020F4907042E80303002BF5D1206850E85F
:101C9000050F226820F0010042E80503002BF5D172
:101CA000202084F8420000202063206850E8030FC1
:101CB000226820F0100042E80303002BF5D1022037
:101CC0006063B8E00A0640F1BB8094F84110212916
:101CD00040F0DD80A168B1F5805F04BF2169002973
:101CE00000F0C780216A4A1C226209784160C7E07F
:101CF000CE0706D012F480761EBF666C46F0010651
:101D0000666401F00407012686EA97072F4302BFA5
:101D1000676C47F00207676401F0020786EA57061E
:101D2000354302BF656C45F00405656453EA0E0354
:101D300018BF0123BCF1000F05D5012B02BF636C56
:101D400043F008036364636C002B00F0A080114033
:101D5000890603D5204600F0DCFC20684069616CF0
:101D600000F0400001F0080108437CD0204600F05C
:101D70009BFC2068416911F0400F01D16EE02068A2
:101D800050E8050F216820F0400041E80502002AD4
:101D9000F5D1E06B002861D042494163FEF7A0FC19
:101DA000002874D0E06B416BBDE8F8400847E26B57
:101DB00011684B689EB2002E69D0A18D8E4266D20A
:101DC000E3859269202A01D130E0206850E8030FB2
:101DD000216820F4807041E80302002AF5D12068D0
:101DE00050E8050F216820F0010041E80502002AB3
:101DF000F5D1206850E8050F216820F0400041E847
:101E00000502002AF5D1202084F84200002020633A
:101E1000206850E8030F216820F0100041E8030219
:101E2000002AF5D1E06BFEF73BFCA18D0220606338
:101E3000E08D081A81B22046BDE8F840FFF7DFBE0A
:101E4000490624D5C16821F04001C160202084F8F2
:101E500041002046BDE8F84000F00CB92046BDE83E
:101E6000F840FFF7CDBE2046FFF7CAFE00206064B1
:101E7000F8BD216A31F8022B6FF35F2242602162C4
:101E8000E18C4FF6FF7201391142E18400D0F8BDB8
:101E9000C16821F08001C160C16841F04001C160AA
:101EA000F8BD00BF0B26000810B504464CB394F8EB
:101EB000410028B9002084F84000204600F024F8B2
:101EC000242084F841002068C16821F40051C160D9
:101ED000204600F083FC2068016921F490410161F3
:101EE000416921F02A014161C16841F40051C1609A
:101EF00000202021606484F8411084F8421060635F
:101F000010BD012010BD00002DE9F04186B0002772
:101F10000446CDE90477CDE90277324D216805F515
:101F2000305081425AD19C4802AE016841F4804150
:101F30000160016801F4804101910199016841F05B
:101F4000080101603146006800F008000190019826
:101F50004020029002200390032005902846FEF7BF
:101F60002BFD4FF0800828463146CDE902870497C3
:101F7000FEF722FD1C481F4D01681C4A11430160F9
:101F80001B4E06F11400C5E900072846C5E9027892
:101F9000C5E90477C5E90677FEF788FC08B1FEF7C6
:101FA0001CFAE5636C62144D10200021C5E9006045
:101FB0002846C5E90218C5E90411C5E90611FEF76E
:101FC00075FC08B1FEF709FA252000210022A5635F
:101FD0006C62FEF73FFE2520FEF72EFE06B0BDE840
:101FE000F08100BF000C0140040001400400000724
:101FF00044000240E0000020F00100207047000093
:1020000010B50446134694F84100202829D1012038
:1020100041B33BB34FF0000C21202162A384E38441
:10202000114AC4F844C084F84100A06B82620F4A90
:10203000C2620F4AC0E90C2C22680432FEF770FC21
:1020400020686FF04001016000E0206850E8050F53
:10205000216840F0800041E80502002AF5D1002007
:1020600000E00220C0B210BD65260008A3260008CB
:102070001726000870477047FEE70000BFB5002430
:10208000164801250394CDE90144154901604FF438
:10209000807181604FF4602105730475C161022174
:1020A00044600161FEF72AFA08B1FEF796F90B4881
:1020B00001A9CDE901450394FEF794F908B1FEF7B3
:1020C0008CF9012001A90190022002900348FEF73B
:1020D00089F908B1FEF781F9BFBD00BF6802002091
:1020E00000240140BCB51048104C0022016841F0AA
:1020F000010101600021006800F0010001900198D9
:102100000B20A0470A4D0B20A8470E2000210022DB
:10211000A0470E20A8470F2000210022A0470F2033
:102120002946BDE8BC40084714100240550C000881
:10213000390C00087FB5184800224FF400450026EE
:10214000016841F020010160016801F02001009167
:102150000099016841F004010160016801F0040187
:1021600000910099016841F0080101604FF40041BD
:10217000006800F0080000900098084C2046FEF728
:10218000FBFC012000956946CDE901060220039081
:102190002046FEF711FC7FBD1810024000080140E8
:1021A000B0B50F480F494FF4827200234FF4006C12
:1021B0004FF0010E4FF40074102580E80E100A2134
:1021C000C0E9043EC0E90645C0E90833C0E90A3168
:1021D000FFF798F818B1BDE8B040FEF7FEB8B0BD03
:1021E000DC02002000300140B0B592B009AC0025FF
:1021F0001C212046CDE91055FEF71AF801A8202130
:10220000FEF716F87648EE4941F26702C0E900157C
:10221000C0E90252C0E904558561FFF708FC08B126
:10222000FEF7DBF86E4810A9CDE91055FFF746F927
:1022300008B1FEF7D2F8602018210990201DFDF7A3
:10224000F7FF674821460022FFF7A4FB08B1FEF71D
:10225000C4F8634809A90422FFF79CFB08B1FEF704
:10226000BCF85F4809A90822FFF794FB08B1FEF704
:10227000B4F801AC14212046FDF7DAFF4FF400500A
:1022800021460690002008905548FFF7EFF808B166
:10229000FEF7A3F85248FFF735FB12B0B0BD00BF00
:1022A000FEB5524800214FF08042472340F2E73C00
:1022B000CDE90411CDE90211CDE90011C0E90023F7
:1022C000C0E9021C016180218161FFF771F908B149
:1022D000FEF783F84FF4805002A902904348FFF7BD
:1022E000DBF908B1FEF779F800206946CDE9000076
:1022F0003E48FFF7E3F808B1FEF76FF806B080BD7F
:1023000080B50B480B494FF4E13200234FF00C0C21
:1023100080E80E00C0E90333C0E905C3C361FFF7DD
:10232000C3FD18B1BDE88040FEF757B880BD00BFBF
:10233000C403002000380140FEE7FEE77047704705
:10234000FEF724BCB0B594B0002405A81421CDE953
:102350000F44CDE90D44FDF76BFF01204FF48031B0
:10236000CDE90344CDE9014402250A90CDE90B14DF
:102370000E904FF4E010CDE9115113900AA8FEF72A
:1023800001FE18B1EFF3108072B6FEE70F200221B4
:10239000CDE905054FF480600794CDE9080405A850
:1023A000FEF712FD18B1EFF3108072B6FEE70220BF
:1023B00001904FF40040039001A8FEF787FC18B18C
:1023C000EFF3108072B6FEE714B0B0BD70470000A6
:1023D0000348FFF7DEB900BF0148FFF7DAB900BFD5
:1023E000340300200148FFF7D4B900BF7C0300206C
:1023F00010B50368724AB0F1804F08D0164CA04265
:102400001CBF6F4CA04202D0144CA04203D14C68B8
:1024100023F070032343B0F1804F08D00E4CA0424C
:102420001CBF674CA04202D00C4CA04203D1CC6828
:1024300023F4407323434C6923F08003904243EA22
:10244000040303608B68C3620B68836204BF09697D
:1024500011630121416110BD0004004000080040EB
:1024600070B5026A036A23F0010322F002020362DC
:10247000D0F804E0D0F818C08C680B6822432CF028
:10248000730444EA030C4E4B98420CD1CE68D1E958
:1024900005452EF4407322F00C02234343EA050E57
:1024A00026F004031A43C0F804E0C0F818C04968D5
:1024B0004163026270BD00BF70B5026A036A23F017
:1024C000100322F020020362D0F804E0D0F818C014
:1024D0008C680B6842EA04122CF4E64444EA032CAC
:1024E000374B98420FD1CE68D1E905452EF44063B1
:1024F00022F0C00243EA840343EA850E6FF04F03E3
:1025000003EA06131A43C0F804E0C0F818C049688B
:102510008163026270BD00BF70B5026A036A23F472
:10252000807322F400720362D0F804E0D0F81CC07B
:102530008C680B6842EA04222CF0730444EA030C12
:102540001F4B98420FD1CE68D1E905452EF4405378
:1025500022F4406243EA041340F2FF4443EA051EBA
:102560003302A3431A43C0F804E0C0F81CC0496812
:10257000C163026270BD00BFB0B5026A036A23F492
:10258000805322F400520362D0F804E0C5698B68DE
:102590000C6842EA033C0A4B25F4E64242EA042274
:1025A000984202BF4B692EF4804545EA831EC0F86D
:1025B00004E0C26149680164C0F820C0B0BD00BF3A
:1025C000002C0140D0F820C0036A23F0010303620D
:1025D000836923F0F00343EA021282612CF00A02BD
:1025E000114301627047D0F820C0036A23F0100342
:1025F0000362836923F4704343EA023282612CF060
:10260000A00242EA011101627047406A0021C185BF
:10261000C184FFF7F5BA10B5446A2068416994F89F
:102620004120212A08D111F0800105D00020E0844A
:10263000204600F060F82068406994F84210222992
:1026400007D110F0400004D00020E085204600F0C3
:102650002BF8606C40F0100060642046BDE810402C
:10266000FFF7CEBA0168406A096811F0200F18BF61
:10267000FFF700BD0021C184016851E8051F026811
:1026800021F0800142E80513002BF5D1016851E8E3
:10269000031F026841F0400142E80313002BF5D10B
:1026A0007047406AFFF7E7BC016851E8031F026802
:1026B00021F4907142E80313002BF5D1016851E831
:1026C000051F026821F0010142E80513002BF5D136
:1026D000016B012909D1016851E8031F026821F04B
:1026E000100142E80313002BF5D1202180F842109D
:1026F000002101637047016851E8031F026821F05F
:10270000C00142E80313002BF5D1202180F84110CD
:10271000704790F84210222918BF70478368B3F5BC
:10272000805F06D1026900F12801A2B1D1F800C092
:1027300008E00146002B51F828CF01D103690BB105
:102740007F2300E0FF23026852681A4001238CF8BF
:1027500000200A6806E00368826A5B686FF35F2303
:10276000138002231A440A604FF6FF72C18D0139AB
:102770001142C18500D070470168CA6822F020026A
:10278000CA60CA6822F48072CA604A6922F00102F3
:102790004A61202280F8422000224263036B012B11
:1027A00018BFFFF72BBC026351E8031F026821F03A
:1027B000100142E803130168002BF5D10A6812F0FA
:1027C000100F08D081B0002200920A680092496878
:1027D0000091009901B0818DFFF711BA10B5044640
:1027E00020680169E26821F44051114341F20C6212
:1027F0000161D4F808C0D4E904E3C16891434EEA0A
:102800000C021A431143C1604169A26921F440716D
:10281000114341611149884202D0FEF76FFB01E08C
:10282000FEF776FB19214843D4E900126FF06304E8
:102830009200B0FBF2F06422B0FBF2F303FB040061
:10284000322404EB0010B0FBF2F000F0F00200F0D4
:102850000F0002EB03121043886010BD00380140E6
:102860001848FFF7CFB900BFFEE700002DE9F04F91
:1028700003AF99B00C4601460720E94600EB8400FF
:1028800000F4FF60ADEB0005AD46A60028463246D9
:10289000FDF79CFCA7F17008294632464046FDF73B
:1028A00095FC4FF0FF40414648F82400042000EB1F
:1028B00084020448FFF7A4FBCD46A7F10C04A5460B
:1028C000BDE8F08FC403002080B50548054900F03D
:1028D00075FB05490C30BDE8804000F06FBB00BFC0
:1028E000600100208FC2F53CCDCCCC3D2DE9FE43EC
:1028F000E54F4FF00008134CDFF854900023CDE96A
:1029000000872046104D114E29463246C84704F133
:102910002400294632460023CDE90087C8470197A5
:102920004FF07C5100230B48009004F148000A4A04
:10293000C8470A490A4800220023CDE90081C84758
:10294000BDE8FE8380010020000040400000964367
:10295000D12F000800007A44000020410000A0416F
:1029600040020020B0B54FF07E5104464FF07E5536
:1029700000F072FC38B92046002100F074FC0028F9
:10298000254608BF00252846B0BD000010B5404CC4
:10299000208800F015FA0A2001E000BF0138010686
:1029A000FBD1002000F00CFA60806FF39F3010BD67
:1029B0002DE9F8430F4600211446064600F061FC5D
:1029C000DFF8F49380463146D9F84450284600F0A9
:1029D00058FC0028294618BF2E46B8F1000F18BF32
:1029E0000026304600F060FC804638460021C9F8D9
:1029F000388000F046FC06462846394600F041FC87
:102A00000028294618BF2F46002E18BF0027384639
:102A100000F04AFC064620460021C9F83C6000F060
:102A200030FC07462846214600F02BFC00282946AA
:102A300018BF2C46002F18BF0024204600F034FC9D
:102A4000024640463146C9F84020BDE8F84300F050
:102A500039B900BF80B5FFF799FF00F09FFD4FF037
:102A6000625100F017FE024900F014FE80BD00BF65
:102A7000DB0FC94010B500F025FA47F6FF7047F6A6
:102A8000FF7400F007F9024944EAC030088010BD25
:102A9000300100202DE9F04779490646104600F044
:102AA0006BFB00F02FFA774D0446294600F0FCFB43
:102AB00000F0EEFA00F0EEFC73490746304600F0F5
:102AC000F3FB8146781C5FFA80F8404600F066FD13
:102AD0002946074600F0DEFD214600F02DFF00F0FC
:102AE00025FA6A4E314600F0D5FD0146484600F011
:102AF000D1FDDFF8C4A2CAF830003846644900F0BE
:102B00003BFB294600F0C6FD0146204600F014FFBD
:102B100000F00CFA314600F0BDFD0146484600F0D9
:102B2000B9FD04464FF07E50CAF83440DAF8305010
:102B3000294600F001FF214600F0FEFE0746A8F1FD
:102B400001000528CAF82C7016D8DFE800F0031A37
:102B50002C3E53682846214600F00EFB05463846B9
:102B60004FF07C5100F096FD2946804600F004FBB2
:102B700007464046214639E0002700264FF000086E
:102B800061E038464FF07C5100F084FD80462846D5
:102B9000214600F0F1FA0146404600F0EDFA064603
:102BA0004046294637E038464FF07C5100F072FD30
:102BB00007462846214600F0DFFA0146384600F075
:102BC000DBFA0646384621463AE038464FF07C515B
:102BD00000F060FD07462846214600F0CDFA014688
:102BE000384600F0C9FA80463846294600F0C4FA53
:102BF000064628E038464FF07C5100F04BFD064673
:102C00002046294600F0B8FA0146304600F0B4FAF2
:102C100080463046214600F0AFFA074613E02846CA
:102C2000214600F0A9FA044638464FF07C5100F0E6
:102C300031FD2146064600F09FFA074630462946F8
:102C400000F09AFA8046104C3846214600F022FDEA
:102C5000054630462146CAF8085000F01BFD0646DE
:102C600040462146CAF80C6000F014FD0246284692
:102C70003146CAF81020BDE8F047FFF799BE00BF03
:102C8000DB0FC93F920A863F00004041D7B3DD3FCA
:102C9000000080BF00210022D3B20F2B84BF01F0BF
:102CA0000100704700F001030132C0F34E001944E7
:102CB000F2E7A0EBC000800001E000BF0130002877
:102CC000FBD17047F8B5144F14460D46B847064679
:102CD0002846B84705462046B84704460F480088AE
:102CE00000F05CFC07463046394600F0D3FC00F0AB
:102CF000EDFBE1490E6839467063284600F0CAFCD6
:102D000000F0E4FBB0632046394600F0C3FC00F05D
:102D1000DDFBF063F8BD00BF6529000870000020EE
:102D2000F8B5044600F0A4F8234FC7E91601D7E927
:102D30001423801A994100F001FC204900F0AAFCFC
:102D40004FF07C51054600F087FA00282E462846B1
:102D50004FF000011CBF41F26F26C3F6832600F03E
:102D600089FA002821461CBF41F26F26C3F683264C
:102D70003046BE6200F08EFC0146786900F0FCF936
:102D800000F0C0F8C7E9050400F0BCF80446786814
:102D900000F0BCFB0146204600F07CFCB94C01462B
:102DA0000A462046FFF776FED7E91601C7E9140167
:102DB000204601B0F0BD00BF10000020BD378635B1
:102DC00078B5ADF802004FF000416A460DF10204FB
:102DD000254E316025490B689A630122DA871C630E
:102DE000DA861D682A6812F0400F1A4601BF2A6869
:102DF00042F040022A600A68E860A01C1863D88E7E
:102E00000138D8860120D18E09B9D18F21B313683A
:102E1000996811F0020F1CBFD18E00290CD080F0F0
:102E20000101C90708D1106B30F8021BD96010638B
:102E3000D08E0138D0860020996811F0010F1CBF98
:102E4000D18F0029DFD0D868916B21F8020B9163F4
:102E5000D08F0138D087D5E74FF400403060BDF8FF
:102E6000000001B070BD00BF1008014078000020D4
:102E7000B0B5124D2868FDF785FE114C20606868DA
:102E8000013060606068A968401AA060286810F48A
:102E9000803F06D0FDF776FE20606068A968401A82
:102EA000A0602068A16863684FF47A725143B1FB57
:102EB000F3F100FB02100021B0BD00BF10E000E004
:102EC00024010020B0B50D4CA0470120FFF7F1FE12
:102ED000A0470B4DA860FFF7CBFFC5E90801012013
:102EE000FDF756FDA0470120FFF7E3FEA04768600D
:102EF000FFF7BEFFC5E90601B0BD00BF552A0008B7
:102F00003001002070B5084C214600F0FFF8002188
:102F1000054600F0A8F906462846214600F02CF99F
:102F2000002E18BF284670BDDB0FC94070B51C4984
:102F3000054600F0AFFB0021044600F094F900289C
:102F40004FF03F41204618BF4FF07C5100F014F97C
:102F500000F0A0FA13490446284600F092F9124EF8
:102F600098B91249284600F07EF918B90E4EC4F5FA
:102F7000C7740AE00E49284600F075F9002814BF0E
:102F8000C4F54774A4F5C7740A4E0B4850F82400E2
:102F900000F0BCFA0146304600F07CFB70BD00BF7B
:102FA000E65FFD42DB0FC93F17B7D138DB0F494061
:102FB000E4CB964017B7D1B83C3A000810B50446A8
:102FC00000202160A060FFF753FF6060204610BD25
:102FD00010B50446029884E80E00E0600398206172
:102FE0000020C4E90700C4E90500FFF741FF2062A3
:102FF000204610BD80B5FDF7CFFDFFF7A3F9FFF721
:1030000099F8FFF76FF8FFF7CBF8FFF7EDF8FFF748
:1030100047F9FFF775F9FFF731F800F001F8FEE71F
:1030200070B514486FF0010201680A61FEF708FBF1
:10303000114C124D00212046A847114E2046002178
:10304000B04720460421A84720460421B047204627
:103050000821A84720460821B047FFF70BFD0520AF
:10306000FDF796FC0748FFF75BFE0120FDF790FC9B
:10307000F8E700BF7C03002034030020D51A0008C5
:103080001D1500080000C0400021084600F00CB9E2
:103090002DE9F041C0F3C751A1F17F050446172D7A
:1030A000A8BFBDE8F0814FF07F471549002D0FDA2A
:1030B00000F062F8B7EB400F1FD300281DDD002C95
:1030C000A8BF002419DAB4F1004F18BF0D4C14E06A
:1030D0000D4A22FA05F6344208BFBDE8F08100F03F
:1030E0004BF8B7EB400F08D3002806DD002C03DABD
:1030F0004FF40000E8400444B4432046BDE8F081AA
:10310000CAF24971000080BFFFFF7F0070B505461D
:1031100020F00040C0F1FF400C46C00F05D124F064
:103120000040C0F1FF40C00F17D0284600F07AFBE6
:103130006FEAD05111F0FF0F08BF70BDE917B1EB76
:10314000E07F08BF70BD014664F31E01BDE870401A
:103150000A460146104600F0E4BB4FF07F40B0EB5A
:10316000450F18BF5FEA4400DFD10120FDF7A1F849
:10317000BDE87040FFF788BF90EA010F48BF81F0BB
:10318000004100F1E083421A3CBF801A89184FEADF
:10319000D052A2EBD1534FF07F4C1CEA410F18BF25
:1031A0009CEA026F00F03B804FF0004C4CEA00209C
:1031B0004CEA012121FA03FC10EB0C0C1ED202F1A7
:1031C000FF325FEA1C2040EBC25038BF70471CF052
:1031D0007F0F4FEA400C18BFBCF17F4F38BF7047DC
:1031E000C3F12003994008BF20F00100BCF17F4FDC
:1031F00038BF7047A0F1C04000F08EBB4FEA3C00E2
:10320000000A40EBC25028BF1CF0FF0F4FEA400CF1
:10321000E6D018BFBCF17F4F38BF7047EAE79CEAA1
:10322000026F05D010EA5C0F08BF00F00040704745
:1032300010B500F0B0FA00BF64FBBE3E10B500F060
:10324000F5F80CBF0120002010BD10B500F0EEF81D
:1032500014BF0120002010BD10B500F0B3F98CBFE1
:103260000120002010BD10B500F0ACF92CBF0120EA
:10327000002010BD10B500F0D9F994BF0120002046
:1032800010BD10B500F0D2F934BF0120002010BDF0
:10329000401058BFC0F14040491058BFC1F14041F3
:1032A0008142EFF3008070474FF47F0C1CEAD0128C
:1032B0001EBF1CEAD11392EA0C0F93EA0C0F00F028
:1032C000858090EA010F48BF42F4807240F4000C00
:1032D00041F400002CF07F4120F07F4000B5A2EBCC
:1032E000030281420FF2081CACEB504E9EF800E046
:1032F000C0F100004FEA4E0E00FB0EFC38BF490043
:103300004FEA2C1C0CFB0EF34FEACE1E0EEB635E55
:103310004FEA112C0EFB0CFC4FEAC1214FEA1C5363
:1033200000FB031102F5FA024FEA112C0EFB0CFC14
:103330004FEA01314FEADC4C00FB0C1142EB224218
:10334000C14228BF09184CEB03335DF804EB10EBC6
:10335000410143EBC250B2F57C0F38BF704729D50D
:1033600012F0F00F1CBF00F1C04000F000407047A9
:10337000008182838485868788898B8C8D8E8F914E
:103380009293959697999A9C9D9FA0A2A3A5A7A872
:10339000AAACAEB0B2B3B5B7B9BCBEC0C2C5C7C99E
:1033A000CCCED1D4D7D9DCDFE2E6E9ECF0F3F7FA02
:1033B000FE0000004FEA400C0CF1807CBCF17E4F17
:1033C00028BF7047B0F1C04000F0A6BA0CEAD11394
:1033D00090EA010F48BF42F48072624538BF6345EE
:1033E00007D213F47F0F16D080EA010000F00040EE
:1033F000704710B500F0CFF9097EFC3E00F005B82B
:1034000080EA010000F00040704780EA010000F00F
:10341000004000F081BA12F47F0F04BF02487047E9
:1034200080EA010000F078BA0000C07F50EA010C89
:1034300000F113801CF5000F58BFBCF5000F01D43C
:103440008842704707D710F5000F58BF11F5000FDD
:1034500015D488427047894270471CF5000F04D587
:10346000BCF5000FF7D5814270474FF0807C1CEB14
:10347000400F38BF1CEB410F01D28142704710B59D
:1034800000F089F9922449004FF000504FF080512C
:10349000FFF7FEBE41000B0ED3F19E0208D950F497
:1034A00000034FEA032323FA02F048BF404270476B
:1034B00010B500F070F900BF4992248000207047D9
:1034C0006FF0004282EA200070470000C10DD1F188
:1034D0009E0206DB4FEA002343F0004323FA02F08A
:1034E0007047004207D54FEA4001B1F1FE4F02D2CA
:1034F0004FF00000704710B500F04DF9499224805C
:10350000002070476FEA20007047000010F0004173
:1035100048BF4042B0FA80F310FA03F2C3F19D03B2
:103520000BD051EAC35101EB1220530638BF70474C
:1035300000F1010008BF20F0010070474FF07E52FB
:1035400009E011F0004204D54042C1F1000138BF4A
:10355000491E42F07E5202F170620B0012BF20231E
:103560005FEA00017047B1FA81FC01FA0CF1A3EBAC
:103570000C0320FA03FC41EA0C0102EBC352C3F135
:10358000200310FA03FC5CEA416C42EB112018BFE7
:103590005FF0806C28BF20F001007047B0FA80F324
:1035A00010FA03F2C3F19D030AD0D90501EB1220F2
:1035B000530638BF704700F1010008BF20F001003A
:1035C0007047000050EA010C00F113801CF5000F59
:1035D00058BFBCF5000F01D48842704707D710F5DB
:1035E000000F58BF11F5000F15D48842704789426B
:1035F00070471CF5000F04D5BCF5000FF7D58142CC
:1036000070474FF0807C1CEB400F38BF1CEB410F24
:1036100001D28142704710B500F0BDF892244900F4
:103620004FF080504FF00051FFF732BE50EA010CCE
:1036300000F113801CF5000F58BFBCF5000F01D43A
:103640008842704707D710F5000F58BF11F5000FDB
:1036500015D488427047894270471CF5000F04D585
:10366000BCF5000FF7D5814270474FF0807C1CEB12
:10367000400F38BF1CEB410F01D28142704710B59B
:1036800000F089F8922449004FF000504FF080512B
:10369000FFF7FEBD4FF47F0C1CEAD0121EBF1CEAE0
:1036A000D11392EA0C0F93EA0C0F00F0478090EAD6
:1036B000010F48BF42F480724FF0004C4CEA0020EA
:1036C0004CEA012102EB0302A0FB0113A2F5000268
:1036D000002918BF43F001035B0028BF4FEA330302
:1036E00042EB22425FEA132C4CEBC2502EBFBCEBE4
:1036F000436FB2F57C0F70474FEA036CBCF1004F8B
:1037000008BF20F00100B2F57C0F38BF70470BD521
:1037100082F0FF0212F5803FC8BF704700F1C04041
:10372000D8BF00F00040704700F5000C5FEA4C0C79
:1037300048BF7047B0F1C04000F0EEB80CEAD113BA
:1037400090EA010F48BF42F48072624538BF63457A
:1037500004D280EA010000F00040704710B500F08C
:103760001AF800BF8900013E00F007B800F009B860
:103770005FEA410C5FEA1C6C08D080EA010000F0AF
:10378000CBB85FEA400C5FEA1C6CF6D14FF000400A
:10379000A0F5800070470EF1020E2EF0030E5EF8C9
:1037A000044B244204D44FEA4102B2F17F4F11D8B6
:1037B0004FEA4003B3F17F4F0CD80ED14FEAD07CD3
:1037C0000CEB4C0C0CF1020CB2F17F4F08BF4CEB30
:1037D000D17C04E04FF0080C01E04FEAD17C0CEB07
:1037E0004C0324FA03F404F00704B4F1040C06D2E9
:1037F0000EEB840CBDE810404CF0010C6047DFE894
:103800000CF0070802024FF00040A0F5800010BD48
:103810000846420018BFD2F1807288BF00F0004015
:1038200010BD00004FF07F4C3CEA410318BF3CEA5A
:10383000400200F062804FF47F0C0CEAD11310F0CC
:10384000004F18BF43F005031CEAD01218BF13EA5B
:103850000C0F00F057804FF0004C4CEA00204CEA6F
:103860000121A3F580339A4210DD23F00203B0F169
:10387000004F06D343F00203401ABCBF404283F01E
:1038800001034FEA4000A2F58032ECE74FEA224CF8
:10389000BCEB234F08DB884206D31CD0A0EB4100D1
:1038A000C0F1000083F0010340001DD217D40DD0F9
:1038B000B0FA80FC0CF1010C00FA0CF0A2EB0C4207
:1038C000D2F1000C12DB4FEAC37070474FEA43702D
:1038D00000F00040704713F0020FE5D0DEE74FEA3A
:1038E0004000B2F58032EBDD002AE9DD4FEAC2127A
:1038F00042EA502040EAC370704710B5FFF74BFF13
:10390000EDFFFF3E1CEAD11F02D000F000407047DF
:10391000004870470000C07FFF2141EAD050C00539
:10392000704780F0004090EA010F7FF52CAC81F0E9
:10393000004100F008B8000090EA010F48BF81F094
:1039400000413FF520AC421A04D882F00042A0EBBF
:10395000020011444FEAD052A2EBD1534FF07F4CFA
:103960001CEA410F18BF9CEA026F4AD04FF0004C8E
:103970004CEA00204CEA012121FA03FCB0EB0C0CCC
:103980000FD412F0FE0F36D05FEA4C001DD50012A6
:1039900040EBC25038BF70471CF03F0F18BF704754
:1039A0000BE05FEA1C20A2F1010240EBC25038BFDD
:1039B00070471CF07F0F18BF7047C3F12003994078
:1039C00014BF401E20F0010070474FEA1223800808
:1039D00008BF7047B0FA80FCA2EB0C02CCF1280CB7
:1039E00060FA0CF093EA122F04BF00EBC25070474C
:1039F0004FEAC3707047130A5FEADC1008BF7047D4
:103A0000F6E79CEA026F04D010EA5C0F08BF0020C2
:103A1000704710B5FFF7BFFE40DFF63E81F0004073
:103A200070470000000000000000010203040607C8
:103A3000080900000000010203040000000000006B
:103A40004F0000009E000000ED0000003C0100005F
:103A50008B010000D901000028020000770200005D
:103A6000C60200001503000063030000B20300005B
:103A7000000400004F0400009D040000EC0400005E
:103A80003A05000088050000D60500002406000065
:103A900072060000C00600000E0700005B07000071
:103AA000A9070000F6070000430800009008000086
:103AB000DD0800002A09000077090000C3090000A2
:103AC0000F0A00005C0A0000A80A0000F40A0000C7
:103AD0003F0B00008B0B0000D60B0000210C0000F8
:103AE0006C0C0000B70C0000010D00004C0D000034
:103AF000960D0000E00D0000290E0000730E00007E
:103B0000BC0E0000050F00004E0F0000960F0000D5
:103B1000DF0F0000271000006E100000B61000003C
:103B2000FD100000441100008B110000D1110000B5
:103B3000171200005D120000A2120000E81200003F
:103B40002D13000071130000B6130000F9130000DC
:103B50003D14000081140000C4140000061500008C
:103B6000491500008B150000CC1500000E16000052
:103B70004F1600008F160000CF1600000F17000030
:103B80004F1700008E170000CD1700000B18000023
:103B90004918000087180000C4180000011900002F
:103BA0003D19000079190000B5190000F019000056
:103BB0002B1A0000661A00009F1A0000D91A000094
:103BC000121B00004B1B0000831B0000BB1B0000EE
:103BD000F21B0000291C0000601C0000961C000065
:103BE000CB1C0000001D0000351D0000691D0000F9
:103BF0009D1D0000D01D0000031E0000351E0000AA
:103C0000671E0000981E0000C91E0000FA1E00007A
:103C1000291F0000591F0000881F0000B61F000068
:103C2000E41F0000112000003E2000006A20000078
:103C300096200000C1200000EC20000016210000AA
:103C4000402100006921000092210000BA210000FB
:103C5000E1210000082200002F2200005522000070
:103C60007A2200009F220000C3220000E722000009
:103C70000A2300002D2300004F23000070230000C2
:103C800091230000B2230000D1230000F1230000A3
:103C90000F2400002D2400004B24000068240000A5
:103CA00084240000A0240000BB240000D5240000D0
:103CB000EF24000009250000222500003A2500001D
:103CC00052250000692500007F2500009525000091
:103CD000AA250000BF250000D3250000E62500002E
:103CE000F92500000B2600001D2600002E260000EE
:103CF0003E2600004E2600005D2600006C260000D7
:103D00007A2600008726000094260000A0260000E6
:103D1000AB260000B6260000C0260000CA26000020
:103D2000D3260000DB260000E3260000EA26000080
:103D3000F1260000F7260000FC2600000127000005
:103D400005270000082700000B2700000D270000B2
:103D50000F2700001027000010270000903D0008EA
:103D6000000000208000000028010008103E00082C
:103D70008000002090090000440100084DEBFFFF87
:103D80006DEBFFFF000000000000000000000000DD
:103D90000100000010000000000000000000000012
:103DA000020000000700000000000000000000000A
:103DB0000000000000000000000000000000000003
:103DC00000000000000000000000000000000000F3
:103DD00000000000000000000000000000000000E3
:103DE0000000000000004041000000000000000052
:103DF00000000000000000000000000000000000C3
:103E0000671000000024F400DC0200200000000025
:04000005080000ED02
:00000001FF
