:020000040800F2
:10000000200A00208D0100084F27000891240008D5
:100010004D270008710400087D2C00080000000036
:10002000000000000000000000000000532700084E
:10003000BD040008000000005127000855270008F3
:10004000A7010008A7010008A7010008A7010008F0
:10005000A7010008A7010008A7010008A7010008E0
:10006000A7010008A7010008A701000875040008FF
:10007000A7010008A70100087D0400088904000802
:10008000A7010008A7010008A7010008A7010008B0
:10009000A7010008A7010008A7010008A7010008A0
:1000A000A7010008ED270008E5270008A7010008C0
:1000B000F9270008A7010008A7010008A701000808
:1000C000A7010008A7010008A7010008A701000870
:1000D000A7010008752C0008A7010008A701000867
:1000E000A7010008A7010008A701000800F002F816
:1000F00000F03CF80AA090E8000C82448344AAF186
:100100000107DA4501D100F031F8AFF2090EBAE883
:100110000F0013F0010F18BFFB1A43F0010318473B
:10012000F044000010450000103A24BF78C878C1A0
:10013000FAD8520724BF30C830C144BF04680C60ED
:10014000704700000023002400250026103A28BF35
:1001500078C1FBD8520728BF30C148BF0B60704739
:100160001FB500F08FF81FBD10B510BD00F0B7F837
:100170001146FFF7F5FF03F047F900F0D5F803B497
:10018000FFF7F2FF03BC00F09BF80000094880472E
:1001900009480047FEE7FEE7FEE7FEE7FEE7FEE769
:1001A000FEE7FEE7FEE7FEE704480549054A064B81
:1001B00070470000E1270008ED000008200400203F
:1001C000200A0020200600202006002010B5203A3A
:1001D000C0F00B80B1E81850A0E81850B1E81850F2
:1001E000A0E81850203ABFF4F5AF5FEA027C24BFC4
:1001F000B1E81850A0E8185044BF18C918C0BDE8AD
:1002000010405FEA827C24BF51F8043B40F8043B75
:1002100008BF7047D20728BF31F8023B48BF11F82A
:10022000012B28BF20F8023B48BF00F8012B704784
:100230004FF0000200B5134694469646203922BF7F
:10024000A0E80C50A0E80C50B1F12001BFF4F7AFCA
:10025000090728BFA0E80C5048BF0CC05DF804EBAC
:10026000890028BF40F8042B08BF704748BF20F81A
:10027000022B11F0804F18BF00F8012B7047704718
:100280007047704770B5064C7C44064D7D4403E0D2
:10029000206820448047241DAC42F9D170BD000085
:1002A000A4430000A843000010B500F00FF8006858
:1002B00010BD10B5044600F009F8046010BD000040
:1002C00001491820ABBEFEE7260002000048704737
:1002D000900000200048704790000020704775464D
:1002E000FFF7F8FFAE4605006946534620F00700C9
:1002F000854618B020B5FFF757FFBDE820404FF006
:1003000000064FF000074FF000084FF0000BAC461E
:10031000ACE8C009ACE8C009ACE8C009ACE8C00969
:1003200021F007018D46704710B50446AFF30080F9
:100330002046BDE81040FFF722BFB0B50446206854
:10034000816811F0010F1FD0816821F001018160E7
:1003500000F086FD05462068806810F0010F13D07C
:1003600000F07EFD401B0328F5D32068806810F064
:10037000010FF0D0A06A40F01000A062E06A40F0E7
:100380000100E0620120B0BD0020B0BD0146486A16
:10039000826A12F0500F03D0006A026B08461047C1
:1003A000816A41F4007181620168896801F4602109
:1003B000B1F5602F04BF017B002901D000F07CB9AA
:1003C000816A21F480718162816A11F4805F02BFC9
:1003D000816A41F00101816200F06EB9406A816A70
:1003E00041F040018162C16A41F00401C16200F044
:1003F00065B9406A00F061B9BCB5044600200190BF
:1004000021688A6812F0010F2FD1886840F001003E
:100410008860A7480068A749B0FBF1F001E00198A7
:100420000138019001980028F9D100F019FD054626
:100430002068806810F0010F16D100F011FD401BFC
:100440000328F5D32068806810F0010FF0D1A06A6E
:1004500040F01000A062E06A40F00100E06200207D
:1004600084F82400012000E0002002B0B0BD00BFED
:10047000FEE70000FA4800F0E7BA00BF014800F0CC
:10048000E3BA00BF00020020014800F0DDBA00BF5F
:10049000F000002010B5D0E90FCE012404FA0EF4CC
:1004A000CCF804400468636040681028084608BF20
:1004B0001046A06008BF0A46E26010BD7047EFF327
:1004C000108072B6FEE70000BCB504460020019023
:1004D00094F82400012801D102205EE0012084F874
:1004E00024002046FFF729FF2046FFF785FF00285C
:1004F00050D1A06A41F20211884340F00200A0628C
:100500006B480568022000F051FDB5FBF0F040009B
:1005100001E001980138019001980028F9D1206884
:10052000816841F00801816000F09AFC054620686E
:10053000816811F0080F0AD000F092FC401B0B28D4
:10054000F5D32068806810F0080FF0D015E08168BE
:1005500041F00401816000F083FC0546206880685A
:1005600010F0040F0ED000F07BFC401B0B28F5D3DD
:100570002068806810F0040FF0D0012010216FF087
:10058000120203E0002001216FF00302A36A1A4067
:100590001143A162002184F8241002B0B0BD00BF55
:1005A000F8B50022009290F82420012A01D10221FE
:1005B00078E0012280F824204B68062B0FD80768CA
:1005C00003EB8303053B3A4652F834EF0C6804FA18
:1005D00003FC1F2404FA03F32EEA030E1CE00A684E
:1005E00007680C2B0BD803EB8303233B02FA03FCB5
:1005F0001F2202FA03F33A4652F8304F0AE003EBA7
:100600008303413B02FA03FC1F2202FA03F33A463A
:1006100052F82C4F24EA030E4EEA0C0307F11005A2
:1006200007244FF0000C13600A68896802EB42034C
:10063000092A88BF1E3B092A88BF07F10C059C4088
:1006400099402E68A6433143296022F00101102908
:100650004FF0000124D11549A1F108039F4205D0B4
:10066000816A41F020018162012119E00B6813F4D5
:10067000000F14D10B68102A43F400030B600ED155
:100680000B4909680B4AB1FBF2F101EB810149000A
:1006900001E000990139009100990029F9D1002168
:1006A00080F824C0C8B201B0F0BD00BF08240140EA
:1006B0008400002040420F007047704770470000E0
:1006C000B0B50446BCB3254655F8280F30B9002014
:1006D000E06284F82400204600F07AF82046FFF714
:1006E0002CFEA26AA16A40BB12F0100025D141F293
:1006F0000210002221EA000040F00200A062D4E9CA
:100700000101012908BF4FF48072B1F5807F08BF55
:100710000A46E3691843237B40EA430C207D012805
:1007200016D173B1A06A40F02000A062E06A40F0E8
:100730000100E0620CE00120B0BD41F01001012099
:100740003CE0A0691E4B03EB4030104340F40062D4
:100750002368B1F5807F586820F4694040EA0200C0
:1007600058609868174A00EA020040EA0C00986056
:1007700018BF012904D12069134901EB005100E0A1
:100780000021D86A20F470000843D86298680F49A5
:100790000840604506D100200122E062A16A62F3B0
:1007A00001010BE0A06A20F0120040F01000A062EE
:1007B00054F82C0F40F00101012025462960B0BDFE
:1007C00000E0FFFFFDF7E1FF0000F0FFFE0E1FFF5E
:1007D00070B586B000260446CDE90466CDE9026610
:1007E0001D48226800F5E0518A4232D11B490A684F
:1007F00042F400720A600A6802F400720192019ADF
:100800000A6842F004020A60096801F004010191DB
:1008100001990321CDE9021102A900F03BFA104D24
:10082000D44880214FF480724FF480634FF0200C45
:10083000C5E9000605F11000C5E9026180E80C1069
:100840002846EE6100F0A0F908B1FFF738FE2562F6
:100850006C6206B070BD00BF000801401810024075
:10086000A80200202DE9F04104460E46904620687B
:100870003C4D3D4988421CBF3C49884205D128680F
:1008800010F4702F01D0012758E094F824000128BB
:1008900001D1022752E0012084F824002046FFF70E
:1008A000ABFD07461FB1002084F8240046E0A06A93
:1008B00040F60171884340F48070A06205F57F70B6
:1008C000216881423DD0A06A20F48010A06248686F
:1008D00010F4806F1FBFA06A012262F30D30A06286
:1008E000A06A0027224A434610F4805F4FF00000C0
:1008F0001CBFE06A20F00600E06284F82470206AE1
:1009000082621C4AC2621C4A02636FF002020A60E1
:100910008A6842F480728A604C31324600F06EF987
:1009200020684FF48012816801F46021B1F5602FD6
:1009300008BF4FF4A0028168114381603846BDE8CA
:10094000F081286810F4702FBDD0A06A40F48010A8
:10095000A062054881421CBF04488142C0D128687A
:10096000B6E700BF042401400028014000240140F4
:100970008D030008F3030008DD03000890F8211040
:10098000022912D1016801230A6822F00E020A60CE
:100990000A6822F001020A60D0E90F1203FA02F29B
:1009A0004A60002180F8213002E0042181630121A6
:1009B000002280F8202008467047000080B590F89B
:1009C000211002291DD103684FF0010C196821F094
:1009D0000E011960196821F001011960644A654926
:1009E0008B4212D064498B4211D064498B4210D0A3
:1009F00063498B4210D063498B4210D14FF4803150
:100A000015E00421816301211BE001210FE0102189
:100A10000DE04FF480710AE04FF4805107E002F1DD
:100A2000680E4FF08071734508BF4FF4801111605C
:100A3000002180F821C080F82010426B0AB1904755
:100A40000021084680BD00BFF0B5D0E90F311C6819
:100A500002681568464F15F0040F1EBF04268E402D
:100A600016EA040619D0116811F0200F02BF1168B0
:100A700021F0040111603F498A4259D03E498A421F
:100A800045D03E498A4244D03D498A4244D03D49FE
:100A90008A4244D14FF480214BE0AE0720D5022694
:100AA0008E4026401CD0116811F0200F06D111682D
:100AB00021F00A011160012180F821102D498A429C
:100AC0003AD02D498A4239D02C498A4238D02C4913
:100AD0008A4238D02B498A4238D14FF400313DE068
:100AE0002F0744D508278F40274008BFF0BD17685F
:100AF00027F00E071760012202FA01F15960002168
:100B0000826380F8212080F82010016B2BE04021C7
:100B10000FE04FF480610CE04FF4804109E007F1F1
:100B200068034FF080619A4208BF4FF4800100E0F3
:100B300004213960C16A16E002210FE020210DE096
:100B40004FF400710AE04FF4005107E007F1680329
:100B50004FF000719A4208BF4FF400113960002134
:100B600080F82010816A11B1BDE8F0400847F0BD5F
:100B700004000240080002401C0002403000024015
:100B8000440002405800024001460120002908BFED
:100B90007047B0B50A68174B02EB030C1423BCFB7B
:100BA000F3F39B000B64144BCB63022381F82130D9
:100BB00043F6F073D2F800C02CEA030CD1E9013EF1
:100BC000D1E9034543EA0C0343EA0E0323432B43D5
:100BD0004D692B438D692B43CD692B431360002254
:100BE0008A6381F8210081F820200020BDE8B04010
:100BF000704700BFF8FFFDBF0000024010B504467B
:100C000094F82000012820D0012084F8200094F8D6
:100C10002100012816D1022084F821000020A063C1
:100C2000D4F800C0DCF8000020F00100CCF800008F
:100C30002046FFF72FFC2068E26A01683AB141F0D4
:100C40000E010AE0002084F8200002200BE021F0D1
:100C500004010160016841F00A010160016841F08E
:100C6000010101600020C0B210BD000070B5054652
:100C70006E1C00F0F5F804461EB195480078054456
:100C800001E04FF0FF3500F0EBF8001BA842FAD36B
:100C900070BD00BF2DE9FE4F614A04234FF0000BE9
:100CA0004FF0010C4FF00F0E4FF0000A4FF000080C
:100CB000904200F1140208BF0323019200930A68D6
:100CC00032FA08F308BFBDE8FE8F0CFA08F73A4283
:100CD00000F0A1804A68032A16D9112A26D0122AC8
:100CE00028D0504B9A4213D04F4B9A421CBF4F4BC7
:100CF0009A420DD04E4B9A421CBF4E4B9A4207D09F
:100D00004D4B9A4204D022E0DFE802F002181B1F8C
:100D10008A6842B1012A019A4FF0080A08BF00F11F
:100D20001002176013E04FF0040A10E0CA6802F1E5
:100D3000040A0CE0CA6802F10C0A08E0D1F80CA021
:100D400005E0CA6802F1080A01E04FF0000AB8F1B4
:100D5000080F0246454628BF04321368374C28BFA7
:100D60002544AE000EFA06F50AFA06F6AB43334305
:100D70001360CA79D2064ED5654A4FEA98060BF041
:100D80000C090EFA09F5136843F0010313601268A9
:100D900002F001020292029B294CA4F57E7353F8E3
:100DA000262022EA050C274A90420AD0264A904281
:100DB0000AD0264ADDF800E0904208BF4FF0020E4C
:100DC00004E04FF0000E01E04FF0010E0EFA09F2C0
:100DD0004FF00F0E42EA0C024FF0010C43F82620B0
:100DE0004A681B4BA66812F4801F0CBFBE433E43EB
:100DF000A66096021E6854BFBE433E431E60930326
:100E0000636854BFBB433B43D2036360226854BF53
:100E1000BA433A4322600BF1040B08F101084EE794
:100E200000140140000011100000121000002110F9
:100E3000000022100000311000003210F8FFFF3FC8
:100E40000004014000080140000C01400010014076
:100E50000C040140002A08BF09040161704700002A
:100E60001B488068704700BF1948017882681144A8
:100E70008160704780B50748016841F0100101604A
:100E8000032000F083F80F2000F006F800F024F8AB
:100E9000002080BD0020024070B50D4E04464FF486
:100EA0007A713078B1FBF0F00A490968B1FBF0F0D3
:100EB00000F098FC01250F2C08D838B94FF0FF300E
:100EC00021460022002500F035F87460284670BDE8
:100ED000000000208400002082B00D48022201683A
:100EE00041F001010160016801F0010101910199E6
:100EF000416841F080514160406800F080500090AE
:100F000000980448016862F31A61016002B07047FA
:100F10001810024004000140002808DB00F01F0107
:100F20000122400902FA01F1014A42F820107047FB
:100F300000E100E0B0B5144C1A4D00F00F03B0F121
:100F4000FF3FA3F104032B4403F10C03C8BF0319B3
:100F50002868C0F30220051DC41E80F00700072D7D
:100F60004FF0010538BF0024042828BF042005FAEB
:100F700000F00138084005FA04F10F31A04011409B
:100F8000084300011870B0BD00E400E005494FF6C9
:100F9000FF030A681A4060F30A22034810430860FE
:100FA000704700BF0CED00E00000FA0510B52A4CB8
:100FB000012812D002282BD0102827D16168206880
:100FC00010F0807F22D0C1F3834024A211F4803F2F
:100FD000105C2DD1D349484333E0206A40F20231FE
:100FE0000140B1F5817F04BF4FF4004010BD00F413
:100FF0004070B0F5407F14D0B0F5007F06D1606A34
:1010000049F64041800701EAE07010BD002010BDA4
:1010100000F050F961680222C1F3813102EB410115
:1010200016E020684FF22441800301EAE07010BD11
:1010300061680EA2C1F34041515CB44AB2FBF1F1C8
:101040004843616811F4800F18BF10BD40000321B0
:10105000B0FBF1F010BD00BF001002400203040518
:10106000060708090A0B0C0D0E0F101001020000F4
:101070002DE9FC4104462078A34EC0075BD0B0693F
:10108000384F10F0805F0BD1B0694FF0010840F08D
:101090008050B061B06900F080500190019801E08B
:1010A0004FF00008386810F4807F11D1386840F4A0
:1010B00080703860FFF7D4FE0546386810F4807FF2
:1010C00006D1FFF7CDFE401B6428F6D9032045E08A
:1010D000F06910F4407020D0616801F440718842DA
:1010E0001BD0F069204901220A60002210F0010F94
:1010F0000A6020F44071F1610FD0FFF7B1FE0546A0
:1011000041F28837F06910F0020F06D1FFF7A8FE10
:10111000411B0320B942F5D920E0F0696168B8F1BC
:10112000010F20F4407040EA0100F06102BFB06995
:1011300020F08050B061206810F0020F05D03168B7
:10114000A26821F4404111433160C00605D53068E2
:10115000E16820F48000084330600020C0B202B093
:10116000BDE8F08100700040400442422DE9F041AA
:1011700004468846002C00F08880464F4FF480508B
:10118000395801F0070141450AD2395821F00701C9
:1011900041EA08013950385800F00700404574D141
:1011A000206810F0020F11D0410742BF796841F466
:1011B000E0617960010742BF796841F4605179606C
:1011C0007968A26821F0F00111437960C00727D047
:1011D0006068012804D1396811F4003F08D154E057
:1011E0003968022802D1890102D44EE089074CD522
:1011F000796821F0030108437860FFF731FE064665
:1012000041F288357868616800F00C00B0EB810F1E
:1012100006D0FFF725FE801BA842F3D9032035E056
:101220004FF48050395801F0070141450AD9395827
:1012300021F0070141EA08013950385800F0070051
:10124000404522D1206810F0040F05D07968E2688B
:1012500021F4E06111437960000706D578682169BF
:1012600020F4605040EAC100786000F031F87968FD
:10127000094AC1F30311515CC8401349086007488B
:101280000068FFF709FE002000E00120C0B2BDE8C1
:10129000F08100BF00100240D64200080400002088
:1012A00009480A4A006818490968C1F30221515CDB
:1012B000C8407047FA48054A0068F7490968C1F311
:1012C000C221515CC840704784000020E6420008FB
:1012D0000D490A680D4802F00C03082B18BF70472F
:1012E000C2F3834C0AA312F4803F13F80C3002D1EE
:1012F0000C4858437047096809A25843C1F340415C
:10130000515CB0FBF1F070470410024000127A000B
:1013100002030405060708090A0B0C0D0E0F101036
:101320000102000000093D002DE9FE4F8246BAF19E
:10133000000F00F065819AF80000D64ED64FC00726
:1013400050D0386800F00C00042819D0386800F03C
:101350000C00082803D1386810F4803F10D1DAF867
:101360000400A8B1B0F5803F06D03168B0F5A02FD9
:1013700024D141F480203060306840F4803023E094
:10138000306810F4003F2DD0DAF8040050BB37E18C
:10139000306820F480303060306820F48020306085
:1013A000FFF75EFD0546306810F4003F1AD0FFF7E6
:1013B00057FD411B03206429F5D922E121F4803037
:1013C0003060306820F480203060FFF749FD05462A
:1013D000306810F4003F05D1FFF742FD401B642840
:1013E000F6D9EBE09AF800008007AC48834632D586
:1013F000386810F00C0F1DD0386800F00C00082879
:1014000004BF386810F4803F14D0DAF810000028C8
:1014100000F09580012059460860FFF721FD054640
:10142000306810F0020F0ED1FFF71AFD401B0228A2
:10143000F6D9C3E0306810F0020F1CBFDAF81000D4
:10144000012840F0DD803068DAF8141020F0F80050
:1014500040EAC10030609AF80000000731D5DAF8A0
:10146000180080B101205946C1F88004FFF7F8FC4C
:101470000546386A10F0020F16D1FFF7F1FC401B49
:101480000228F6D99AE000205946C1F88004FFF7F7
:10149000E7FC0546386A10F0020F12D0FFF7E0FCB7
:1014A000401B0228F6D989E07D484FF4FA510068C4
:1014B000B0FBF1F0029000BF0298411E002802919B
:1014C000F9D19AF80000400740F18180B86910F026
:1014D000805F0BD1B8694FF0010840F08050B861CF
:1014E000B86900F080500190019801E04FF00008C9
:1014F0006C48305810F4807F12D16A48315841F45A
:1015000080713150FFF7ACFC05466648305810F446
:10151000807F05D1FFF7A4FC401B6428F5D94DE07E
:10152000DAF80C00E8B1012805D0F969052830D1B6
:1015300041F00400F861F86940F001002FE000205C
:1015400059460860FFF78CFC0546306810F0020F22
:101550003FF481AFFFF784FC411B03200229F4D93B
:101560004FE0F86920F00100F861F86920F004000C
:10157000F861FFF775FC054641F28839F86910F00B
:10158000020F1DD0FFF76CFC411B03204945F5D924
:1015900037E021F00100F861F86920F00400F861FB
:1015A000FFF75EFC054641F28834F86910F0020F3F
:1015B00006D1FFF755FC401BA042F6D9032020E0DE
:1015C000B8F1010F02BFB86920F08050B861DAF8B5
:1015D0001C405946002C5AD0386800F00C000828EE
:1015E00013D1012C0CD03868DAF8201000F48032C6
:1015F0008A4205D1DAF8241000F47010884246D0EF
:101600000120C0B203B0BDE8F08F00200866FFF7EC
:1016100027FC0546022C0AD1306810F0007F11D05B
:10162000FFF71EFC411B03200229F5D9E9E73068CA
:1016300010F0007F2BD0FFF713FC411B0320022981
:10164000F5D9DEE7DAF82000B0F5803F06D1396839
:10165000DAF8082021F4003111433960396821F4A7
:1016600074110843DAF82410084338600120CBF8DD
:101670006000FFF7F5FB0446306810F0007F06D1EC
:10168000FFF7EEFB011B03200229F5D9B9E7002083
:10169000B7E700BF001002400410024000004242C1
:1016A000840000200060FEFF70B5044634B1606A1B
:1016B00030B10020206104F1140007E001264CE065
:1016C0006068B0F5827F03D004F11C000021016046
:1016D00000264FF0000CA66294F8510038B920465D
:1016E00084F8506000F03CF8A06A00F4005C02212D
:1016F00084F8511021680A6822F040020A60D4E997
:101700000123D4E9030502F4827203F4044300F4D4
:1017100000601A43104305F002021043626902F0B0
:1017200001021043A26902F400731843E36903F055
:1017300038031843236A03F08003184340EA0C007F
:101740000860042000EA12404860C86920F4006084
:10175000C8610120666584F85100304670BD000004
:1017600070B586B00026CDE90466CDE90266194C55
:10177000006804F5105188422AD1174802AD01686B
:1017800041F480510160016801F480510191019997
:10179000016841F0080101602946006800F0080076
:1017A00001900198282002900220039003200590C8
:1017B0002046FFF76FFA10202946CDE902062046A1
:1017C0000496FFF767FA05480168054A114301606E
:1017D00006B070BD000C014018100240040001402A
:1017E00001000007411E0020B0EB116F1CBF01205B
:1017F0007047044AF023516003490B700721906041
:101800001160704710E000E023ED00E07047704782
:1018100090F83C20012A01D102211FE0B0B501F16E
:101820000805D1E900CE3CCDC96923F47C5322F4EC
:1018300070521A432EF4F0431A432CF4E0431A4337
:1018400024F4C0431A432A4322F48042114302681D
:101850005164002180F83C10BDE8B040C8B2704728
:1018600090F83C300222012B28D080B5012380F86B
:101870003C3080F83D2002685368D2F808C0B2F1CD
:10188000804F23F0700E0B6843EA0E035360BDE8EF
:10189000804008D0664B9A421CBF664B9A4202D0E9
:1018A000654B9A4204D149682CF08003194391603A
:1018B0000121002280F83D1080F83C20D0B2704712
:1018C00039B10322082908BF0222042908BF0122D6
:1018D00000E00022024492F84220012A1CBF0120AD
:1018E0007047022241B1082909D0042914BF80F8A9
:1018F000452080F8432004E080F8422001E080F891
:101900004420006801F01F01042202FA01F1026A7A
:10191000B0F1804F22EA01020262026A41EA02014A
:101920000162416C41F40041416408D04049884261
:101930001CBF4049884202D03F49884204D1816897
:1019400001F00701062903D0016841F0010101609F
:101950000020704710B5044634B394F83D0028B910
:10196000002084F83C00204600F020F80220211DD1
:1019700084F83D00206800F045FF012084F846000F
:1019800084F83E0084F83F0084F8400084F8410069
:1019900084F8420084F8430084F8440084F8450049
:1019A00084F83D00002010BD012010BD0068B0F19A
:1019B000804F18BF7047E0B509480022016841F028
:1019C000010101600021006800F001000190019810
:1019D0001C20FFF7AFFA1C20BDE88C40FFF79CBA33
:1019E0001C10024090F83D1001291CBF01207047D7
:1019F000022180F83D100068C168B0F1804F41F0CD
:101A00000101C16008D00A4988421CBF09498842C7
:101A100002D00949884204D1816801F007010629F2
:101A200003D0016841F0010101600020704700BF50
:101A300000040040002C01400008004010B504469E
:101A4000022094F83C20012A70D001224FF67773CF
:101A500084F83C2084F83D00206882689A438260C4
:101A60000A6812B3102A20D0202A18BF302A1CD0AE
:101A7000402A21D0502A2BD0602A35D0B2F5005F01
:101A80003ED0B2F5805F4AD0702A51D1D1E901230E
:101A9000C9681A4342EA0121826822F47F42114355
:101AA0008160816841F0770138E0816821F0770139
:101AB000114341F0070131E04B68CA68194600F054
:101AC0008BFF2068816821F0770141F0470125E014
:101AD0004B68CA68194600F07FFF2068816821F0D2
:101AE000770141F0570119E04B68CA68194600F0C8
:101AF00084FF2068816821F0770141F067010DE0E3
:101B0000D1E90123C9681A4342EA0121826822F41B
:101B10007F4211438160816841F4804181600020EF
:101B2000012184F83D10002184F83C10C0B210BDA2
:101B30000120F5E7704710B504462068016911F0EF
:101B4000020F1CBFC16811F0020F15D06FF0020127
:101B5000016101212177806910F0030F03D0204635
:101B6000FFF7E8FF05E0204600F0E4F8204600F02B
:101B700081F9002020772068016911F0040F1CBF53
:101B8000C16811F0040F15D06FF00401016102214A
:101B90002177806910F4407F03D02046FFF7CAFF09
:101BA00005E0204600F0C6F8204600F063F900206A
:101BB00020772068016911F0080F1CBFC16811F07F
:101BC000080F15D06FF00801016104212177C06969
:101BD00010F0030F03D02046FFF7ACFF05E02046CE
:101BE00000F0A8F8204600F045F900202077206892
:101BF000016911F0100F1CBFC16811F0100F15D052
:101C00006FF01001016108212177C06910F4407F55
:101C100003D02046FFF78EFF05E0204600F08AF84B
:101C2000204600F027F9002020772068016911F094
:101C3000010F1CBFC16811F0010F06D06FF0010148
:101C40000161204600F06AF92068016911F0800FF7
:101C50001CBFC16811F0800F06D06FF080010161D8
:101C60002046FFF7D3FD2068016911F0400F1CBF2B
:101C7000C16811F0400F06D06FF0400101612046AD
:101C800000F0C8F92068016911F0200F1CBFC1687D
:101C900011F0200F00D110BD6FF02001016120462E
:101CA000BDE81040FFF7B3BD70B586B00021CDE9A7
:101CB0000411CDE902111B4C006804F51051884253
:101CC0002DD16B4802AD0226016841F0040101608C
:101CD000016801F0040101910199016841F00801D6
:101CE00001602946006800F00800019001984FF457
:101CF000F0600290204603960596FEF7CBFF032086
:101D00002946CDE9020604F580600596FEF7C2FF7C
:101D100005480168054A1140054A1143016006B0B3
:101D200070BD00BF00080140040001403FFFFFF804
:101D30004000000770470000B0B504460D4694F817
:101D40003C00012801D1022041E04FEAB20101200C
:101D5000032984F83C0037D8DFE801F0020A122298
:101D60002068294600F086FD206850F8181F0EE014
:101D70002068294600F0AAFD206850F8181F16E0D8
:101D80002068294600F0D2FD206850F81C1F41F061
:101D900008010160016821F00401016029690FE078
:101DA0002068294600F0F2FD206850F81C1F41F41D
:101DB00000610160016821F4806101602969090204
:101DC0000268114301600020002184F83C10C0B279
:101DD000B0BD10B5044634B394F83D0028B90020D6
:101DE00084F83C00204600F021F80220211D84F8F0
:101DF0003D00206800F006FD012084F8460084F8CC
:101E00003E0084F83F0084F8400084F8410084F8E4
:101E1000420084F8430084F8440084F8450084F8C4
:101E20003D00002010BD012010BD000000683849B1
:101E3000884218BF7047E0B50D480022016841F4A0
:101E4000006101600021006800F4006001900198C9
:101E50001920FFF76FF81920FFF75EF81A2000210C
:101E60000022FFF767F81A20BDE88C40FFF754B84E
:101E7000181002407047000039B10322082908BF3A
:101E80000222042908BF012200E00022024492F845
:101E90003E20012A1CBF01207047022241B10829BF
:101EA00009D0042914BF80F8412080F83F2004E0C5
:101EB00080F83E2001E080F84020006801F01F011A
:101EC000012202FA01F1026A8A430262026A1143A4
:101ED00001620F49884202BF4A6C42F400424A64E0
:101EE000B0F1804F08D00B4988421CBF0849884296
:101EF00002D00949884204D1816801F0070106290E
:101F000003D0016841F0010101600020704700BF6B
:101F1000002C014000040040000800403049884285
:101F200018BF704770B586B02E4E7088B0F57F6FC1
:101F300010D9706801F04EFD2B4A2D4B01F064FB67
:101F400001F030FB70602B4901F0F5FDB0B9294874
:101F5000706013E00E2811D8706801F03BFD224A32
:101F6000224B01F051FB01F01DFB4FF081417060ED
:101F70004FF0814401F0CAFD00B9746030881E4CF6
:101F8000194DB0F57F6F03D81C4C174D0E280BD898
:101F9000B06801F01FFD02460B462846214601F0BD
:101FA00033FB01F0FFFAB06000F05EFF14490860F7
:101FB00014480621006800901348006801901348F7
:101FC0000068029012480068039070680490B0683E
:101FD0000590684600F054FE06B0BDE870407047BA
:101FE0008C0300200C0000207B14AE47E17A84BFF4
:101FF000E17A843F00004041E17A943FE17A94BF66
:1020000074020020280000202C0000203000002056
:10201000340000207047704770470000F8B5044650
:1020200020680168C268456901F02F0602F02003AC
:10203000202E05D123B12046BDE8F84000F073BD45
:102040005FEA017C08D005F0010E12F4907F8EF05B
:10205000010559D1002D57D01140CA06226B3DD53C
:10206000012A3BD100210091016800914168009153
:102070000099416911F0400F40F0A580A18DE28DDB
:10208000E38D002B00F00F81891A89B209B90AE1AA
:10209000206850E8030F226820F4907042E80303A0
:1020A000002BF5D1206850E8050F226820F00100D0
:1020B00042E80503002BF5D1202084F842000020DF
:1020C0002063206850E8030F226820F0100042E8E7
:1020D0000303002BF5D102206063B8E00A0640F14B
:1020E000BB8094F84110212940F0DD80A168B1F552
:1020F000805F04BF2169002900F0C780216A4A1C63
:10210000226209784160C7E0CE0706D012F48076DB
:102110001EBF666C46F00106666401F004070126E6
:1021200086EA97072F4302BF676C47F00207676490
:1021300001F0020786EA5706354302BF656C45F099
:102140000405656453EA0E0318BF0123BCF1000FB8
:1021500005D5012B02BF636C43F008036364636C15
:10216000002B00F0A0801140890603D5204600F026
:10217000DAFC20684069616C00F0400001F0080161
:1021800008437CD0204600F099FC2068416911F09A
:10219000400F01D16EE0206850E8050F216820F063
:1021A000400041E80502002AF5D1E06B002861D02B
:1021B00042494163FEF702FC002874D0E06B416B9A
:1021C000BDE8F8400847E26B11684B689EB2002EEC
:1021D00069D0A18D8E4266D2E3859269202A01D111
:1021E00030E0206850E8030F216820F4807041E857
:1021F0000302002AF5D1206850E8050F216820F07D
:10220000010041E80502002AF5D1206850E8050FD9
:10221000216820F0400041E80502002AF5D1202085
:1022200084F8420000202063206850E8030F2168F2
:1022300020F0100041E80302002AF5D1E06BFEF720
:102240009DFBA18D02206063E08D081A81B22046BB
:10225000BDE8F840FFF7DFBE490624D5C16821F08C
:102260004001C160202084F841002046BDE8F840CC
:1022700000F00CB92046BDE8F840FFF7CDBE20467F
:10228000FFF7CAFE00206064F8BD216A31F8022B16
:102290006FF35F2242602162E18C4FF6FF720139D9
:1022A0001142E18400D0F8BDC16821F08001C16015
:1022B000C16841F04001C160F8BD00BF1F2A00089D
:1022C00010B504464CB394F8410028B9002084F8B6
:1022D0004000204600F024F8242084F841002068C3
:1022E000C16821F40051C160204600F081FC2068E3
:1022F000016921F490410161416921F02A014161A4
:10230000C16841F40051C16000202021606484F85C
:10231000411084F84210606310BD012010BD000020
:102320002DE9F04186B000270446CDE90477CDE9D8
:102330000277324D216805F5305081425AD19B48D1
:1023400002AE016841F480410160016801F48041FE
:1023500001910199016841F008010160314600686E
:1023600000F00800019001984020029002200390A4
:10237000032005902846FEF78DFC4FF08008284684
:102380003146CDE902870497FEF784FC1C481F4DB7
:1023900001681C4A114301601B4E06F11400C5E997
:1023A00000072846C5E90278C5E90477C5E906773C
:1023B000FEF7EAFB08B1FEF782F8E5636C62144DA4
:1023C00010200021C5E900602846C5E90218C5E9CA
:1023D0000411C5E90611FEF7D7FB08B1FEF76FF847
:1023E000252000210022A5636C62FEF7A3FD2520B5
:1023F000FEF792FD06B0BDE8F08100BF000C014081
:10240000040001400400000744000240F0000020E6
:10241000000200207047000010B50446134694F8EF
:102420004100202829D1012041B33BB34FF0000CDB
:1024300021202162A384E384114AC4F844C084F8B3
:102440004100A06B82620F4AC2620F4AC0E90C2CA5
:1024500022680432FEF7D2FB20686FF04001016071
:1024600000E0206850E8050F216840F0800041E856
:102470000502002AF5D1002000E00220C0B210BD04
:10248000792A0008B72A00082B2A000870477047ED
:10249000FEE700007FB500241548012502260394BD
:1024A000CDE90144134901604FF4807181604FF41C
:1024B000602105730475C16144600661FEF700F98F
:1024C00008B1FDF7FCFF01A801A970C00848FEF79C
:1024D00067F808B1FDF7F3FF012001A90190022080
:1024E00002900348FEF75CF808B1FDF7E8FF7FBDF6
:1024F0007802002000240140BCB51048104C002296
:10250000016841F0010101600021006800F0010054
:10251000019001980B20A0470A4D0B20A8470E20E0
:1025200000210022A0470E20A8470F2000210022F2
:10253000A0470F202946BDE8BC40084714100240C0
:10254000350F0008190F00087FB5184800224FF416
:1025500000450026016841F020010160016801F09A
:10256000200100910099016841F0040101600168B7
:1025700001F0040100910099016841F00801016037
:102580004FF40041006800F0080000900098084CEB
:102590002046FEF75FFC012000956946CDE9010663
:1025A000022003902046FEF775FB7FBD1810024005
:1025B00000080140B0B50F480F494FF48272002364
:1025C0004FF4006C4FF0010E4FF40074102580E8BA
:1025D0000E100A21C0E9043EC0E90645C0E90833EF
:1025E000C0E90A31FFF760F818B1BDE8B040FDF767
:1025F00066BFB0BDEC02002000300140B0B592B023
:1026000009AC00251C212046CDE91055FDF710FE30
:1026100001A82021FDF70CFE7648EE4941F2670241
:10262000C0E90015C0E90252C0E904558561FFF711
:10263000D0FB08B1FDF743FF6E4810A9CDE9105556
:10264000FFF70EF908B1FDF73AFF60201821099055
:10265000201DFDF7EDFD674821460022FFF76CFBCA
:1026600008B1FDF72CFF634809A90422FFF764FBBA
:1026700008B1FDF724FF5F4809A90822FFF75CFBBA
:1026800008B1FDF71CFF01AC14212046FDF7D0FD79
:102690004FF4005021460690002008905548FFF75F
:1026A000B7F808B1FDF70BFF5248FFF7FDFA12B07B
:1026B000B0BD00BFFEB5524800214FF08042472315
:1026C00041F2873CCDE90411CDE90211CDE90011B9
:1026D000C0E90023C0E9021C016180218161FFF78C
:1026E00039F908B1FDF7EBFE4FF4805002A90290D2
:1026F0004348FFF7A3F908B1FDF7E1FE0020694662
:10270000CDE900003E48FFF7ABF808B1FDF7D7FE72
:1027100006B080BD80B50B480B494FF4E132002371
:102720004FF00C0C80E80E00C0E90333C0E905C38C
:10273000C361FFF7C5FD18B1BDE88040FDF7BFBE1E
:1027400080BD00BFD403002000380140FEE7FEE753
:1027500070477047FEF788BBB0B594B0002405A859
:102760001421CDE90F44CDE90D44FDF761FD0120B1
:102770004FF48031CDE90344CDE9014402250A90AC
:10278000CDE90B140E904FF4E010CDE911511390E8
:102790000AA8FEF7C9FD18B1EFF3108072B6FEE784
:1027A0000F200221CDE905054FF480600794CDE9A3
:1027B000080405A8FEF7DAFC18B1EFF3108072B632
:1027C000FEE7022001904FF40040039001A8FEF7BD
:1027D0004FFC18B1EFF3108072B6FEE714B0B0BD35
:1027E000704700000348FFF7A6B900BF0148FFF794
:1027F000A2B900BF440300200148FFF79CB900BF05
:102800008C03002010B50368724AB0F1804F08D0E5
:10281000164CA0421CBF6F4CA04202D0144CA042E8
:1028200003D14C6823F070032343B0F1804F08D0EC
:102830000E4CA0421CBF674CA04202D00C4CA042E0
:1028400003D1CC6823F4407323434C6923F0800305
:10285000904243EA040303608B68C3620B6883629F
:1028600004BF096911630121416110BD00040040EA
:102870000008004070B5026A036A23F0010322F0E9
:1028800002020362D0F804E0D0F818C08C680B682C
:1028900022432CF0730444EA030C4E4B98420CD1B3
:1028A000CE68D1E905452EF4407322F00C02234393
:1028B00043EA050E26F004031A43C0F804E0C0F80A
:1028C00018C049684163026270BD00BF70B5026AFA
:1028D000036A23F0100322F020020362D0F804E020
:1028E000D0F818C08C680B6842EA04122CF4E64455
:1028F00044EA032C374B98420FD1CE68D1E9054505
:102900002EF4406322F0C00243EA840343EA850EBA
:102910006FF04F0303EA06131A43C0F804E0C0F84F
:1029200018C049688163026270BD00BF70B5026A59
:10293000036A23F4807322F400720362D0F804E087
:10294000D0F81CC08C680B6842EA04222CF0730497
:1029500044EA030C1F4B98420FD1CE68D1E90545DC
:102960002EF4405322F4406243EA041340F2FF4441
:1029700043EA051E3302A3431A43C0F804E0C0F83B
:102980001CC04968C163026270BD00BFB0B5026A75
:10299000036A23F4805322F400520362D0F804E067
:1029A000C5698B680C6842EA033C0A4B25F4E64291
:1029B00042EA0422984202BF4B692EF4804545EA60
:1029C000831EC0F804E0C26149680164C0F820C0F9
:1029D000B0BD00BF002C0140D0F820C0036A23F036
:1029E00001030362836923F0F00343EA0212826168
:1029F0002CF00A02114301627047D0F820C0036A2C
:102A000023F010030362836923F4704343EA023224
:102A100082612CF0A00242EA011101627047406A13
:102A20000021C185C184FFF7F7BA10B5446A206858
:102A3000416994F84120212A08D111F0800105D084
:102A40000020E084204600F060F82068406994F897
:102A50004210222907D110F0400004D00020E08568
:102A6000204600F02BF8606C40F0100060642046B7
:102A7000BDE81040FFF7D0BA0168406A096811F05C
:102A8000200F18BFFFF702BD0021C184016851E883
:102A9000051F026821F0800142E80513002BF5D1E3
:102AA000016851E8031F026841F0400142E8031346
:102AB000002BF5D17047406AFFF7E9BC016851E887
:102AC000031F026821F4907142E80313002BF5D133
:102AD000016851E8051F026821F0010142E8051371
:102AE000002BF5D1016B012909D1016851E8031FC1
:102AF000026821F0100142E80313002BF5D12021D8
:102B000080F84210002101637047016851E8031FFB
:102B1000026821F0C00142E80313002BF5D1202107
:102B200080F84110704790F84210222918BF704772
:102B30008368B3F5805F06D1026900F12801A2B174
:102B4000D1F800C008E00146002B51F828CF01D190
:102B500003690BB17F2300E0FF23026852681A402B
:102B600001238CF800200A6806E00368826A5B682B
:102B70006FF35F23138002231A440A604FF6FF723B
:102B8000C18D01391142C18500D070470168CA6802
:102B900022F02002CA60CA6822F48072CA604A69C0
:102BA00022F001024A61202280F842200022426382
:102BB000036B012B18BFFFF72DBC026351E8031F05
:102BC000026821F0100142E803130168002BF5D1DF
:102BD0000A6812F0100F08D081B0002200920A6833
:102BE000009249680091009901B0818DFFF713BAF6
:102BF00010B5044620680169E26821F44051114390
:102C000041F20C620161D4F808C0D4E904E3C16860
:102C100091434EEA0C021A431143C1604169A26913
:102C200021F44071114341611149884202D0FEF7FD
:102C300037FB01E0FEF73EFB19214843D4E90012BF
:102C40006FF063049200B0FBF2F06422B0FBF2F389
:102C500003FB0400322404EB0010B0FBF2F000F0A0
:102C6000F00200F00F0002EB03121043886010BD69
:102C7000003801401848FFF7D1B900BFFEE7000057
:102C80002DE9F04F03AF99B00C4601460720E94605
:102C900000EB840000F4FF60ADEB0005AD46A6003C
:102CA00028463246FDF792FAA7F1700829463246C7
:102CB0004046FDF78BFA4FF0FF40414648F82400AC
:102CC000042000EB84020448FFF7A6FBCD46A7F1E1
:102CD0000C04A546BDE8F08FD403002080B505485C
:102CE000054900F075FB05490C30BDE8804000F057
:102CF0006FBB00BF700100208FC2F53CCDCCCC3D36
:102D00002DE9FE43E54F4FF00008134CDFF85490D7
:102D10000023CDE900872046104D114E294632464A
:102D2000C84704F12400294632460023CDE9008734
:102D3000C84701974FF07C5100230B48009004F1E5
:102D400048000A4AC8470A490A4800220023CDE938
:102D50000081C847BDE8FE8390010020000040408C
:102D600000009643E533000800007A44000020414B
:102D70000000A04150020020B0B54FF07E51044643
:102D80004FF07E5500F0C2FE38B92046002100F019
:102D9000C4FE0028254608BF00252846B0BD000017
:102DA00010B5404C208800F015FA0A2001E000BF61
:102DB00001380106FBD1002000F00CFA60806FF3AF
:102DC0009F3010BD2DE9F8430F46002114460646FA
:102DD00000F0B1FEDFF8F49380463146D9F8445054
:102DE000284600F0A8FE0028294618BF2E46B8F154
:102DF000000F18BF0026304600F0B0FE804638466F
:102E00000021C9F8388000F096FE0646284639466B
:102E100000F091FE0028294618BF2F46002E18BF4B
:102E20000027384600F09AFE064620460021C9F8E1
:102E30003C6000F080FE07462846214600F07BFEFD
:102E40000028294618BF2C46002F18BF0024204612
:102E500000F084FE024640463146C9F84020BDE8F5
:102E6000F84300F039B900BF80B5FFF799FF00F0D3
:102E7000EFFF4FF0625101F067F8024901F064F88A
:102E800080BD00BFDB0FC94010B500F025FA47F642
:102E9000FF7047F6FF7400F007F9024944EAC030BA
:102EA000088010BD400100202DE9F0477949064611
:102EB000104600F0BBFD00F02FFA774D044629467E
:102EC00000F04CFE00F0FAFA00F03EFF73490746AE
:102ED000304600F043FE8146781C5FFA80F8404699
:102EE00000F0B6FF2946074601F02EF8214601F012
:102EF0007DF900F025FA6A4E314601F025F80146C9
:102F0000484601F021F8DFF8C4A2CAF8300038467C
:102F1000644900F08BFD294601F016F80146204671
:102F200001F064F900F00CFA314601F00DF80146A9
:102F3000484601F009F804464FF07E50CAF8344084
:102F4000DAF83050294601F051F9214601F04EF9E6
:102F50000746A8F101000528CAF82C7016D8DFE84A
:102F600000F0031A2C3E53682846214600F05EFD0F
:102F7000054638464FF07C5100F0E6FF2946804672
:102F800000F054FD07464046214639E00027002660
:102F90004FF0000861E038464FF07C5100F0D4FF5C
:102FA00080462846214600F041FD0146404600F09B
:102FB0003DFD06464046294637E038464FF07C51F5
:102FC00000F0C2FF07462846214600F02FFD0146CB
:102FD000384600F02BFD0646384621463AE0384692
:102FE0004FF07C5100F0B0FF07462846214600F024
:102FF0001DFD0146384600F019FD80463846294639
:1030000000F014FD064628E038464FF07C5100F0F1
:103010009BFF06462046294600F008FD0146304643
:1030200000F004FD80463046214600F0FFFC0746D4
:1030300013E02846214600F0F9FC044638464FF0DC
:103040007C5100F081FF2146064600F0EFFC074668
:103050003046294600F0EAFC8046104C38462146AE
:1030600000F072FF054630462146CAF8085000F0CD
:103070006BFF064640462146CAF80C6000F064FF2C
:10308000024628463146CAF81020BDE8F047FFF74F
:1030900099BE00BFDB0FC93F920A863F0000404146
:1030A000D7B3DD3F000080BF00210022D3B20F2B39
:1030B00084BF01F00100704700F001030132C0F34A
:1030C0004E001944F2E7A0EBC000800001E000BF11
:1030D00001300028FBD17047F8B5144F14460D4657
:1030E000B84706462846B84705462046B84704462E
:1030F0000F48008800F0ACFE07463046394600F025
:1031000023FF00F03DFEE8490E683946706328460B
:1031100000F01AFF00F034FEB0632046394600F09C
:1031200013FF00F02DFEF063F8BD00BF792D0008FD
:10313000800000202DE9F0410D46804600F0A2F805
:10314000224CC4E91601D4E91423801A994100F0F5
:103150004FFE1F4900F0F8FE4FF07C51064600F08C
:10316000D5FC0028374630464FF000011CBF41F225
:103170006F27C3F6832700F0D7FC002829461CBF21
:1031800041F26F27C3F683273846A76200F0DCFEC2
:103190000146606900F04AFC00F0BEF8C4E905058C
:1031A00000F0BAF80546606800F00AFE01462846BD
:1031B00000F0CAFE014640460A46FFF775FED4E914
:1031C0001601C4E914014046BDE8F081200000204A
:1031D000BD37863578B5ADF802004FF000416A463C
:1031E0000DF10204254E316025490B689A630122D6
:1031F000DA871C63DA861D682A6812F0400F1A46C7
:1032000001BF2A6842F040022A600A68E860A01CF8
:103210001863D88E0138D8860120D18E09B9D18F94
:1032200021B31368996811F0020F1CBFD18E0029D9
:103230000CD080F00101C90708D1106B30F8021BD7
:10324000D9601063D08E0138D0860020996811F0C3
:10325000010F1CBFD18F0029DFD0D868916B21F8F6
:10326000020B9163D08F0138D087D5E74FF400402F
:103270003060BDF8000001B070BD00BF1008014013
:1032800088000020B0B5124D2868FDF7E9FD114C0B
:1032900020606868013060606068A968401AA060BA
:1032A000286810F4803F06D0FDF7DAFD20606068E2
:1032B000A968401AA0602068A16863684FF47A7218
:1032C0005143B1FBF3F100FB02100021B0BD00BF80
:1032D00010E000E034010020B0B50D4CA047012003
:1032E000FFF7F1FEA0470B4DA860FFF7CBFFC5E944
:1032F00008010120FDF7BAFCA0470120FFF7E3FE1B
:10330000A0476860FFF7BEFFC5E90601B0BD00BF7A
:10331000692E00084001002070B5084C214600F0DD
:103320000BF90021054600F0F8FB06462846214629
:1033300000F07CFB002E18BF284670BDDB0FC94093
:1033400070B51C49054600F0FFFD0021044600F061
:10335000E4FB00284FF03F41204618BF4FF07C515E
:1033600000F064FB00F0F0FC13490446284600F02E
:10337000E2FB124E98B91249284600F0CEFB18B96C
:103380000E4EC4F5C7740AE00E49284600F0C5FB8E
:10339000002814BFC4F54774A4F5C7740A4E0B483F
:1033A00050F8240000F00CFD0146304600F0CCFD42
:1033B00070BD00BFE65FFD42DB0FC93F17B7D138D4
:1033C000DB0F4940E4CB964017B7D1B8F042000874
:1033D00010B5044600202160A060FFF753FF606035
:1033E000204610BD10B50446029884E80E00E06047
:1033F000039820610020C4E90700C4E90500FFF735
:1034000041FF2062204610BD80B5FDF733FDFFF778
:10341000A3F9FFF799F8FFF76FF8FFF7CBF8FFF77D
:10342000EDF8FFF747F9FFF775F9FFF733F800F00C
:1034300001F8FEE7F8B519486FF0010201680A616A
:10344000FEF7D0FA164D2846FDF73EF8154C2846F3
:1034500002222146FDF706FA0520FDF707FC124D72
:10346000124E00212846B047114F28460021B84788
:1034700028460421B04728460421B8472846082199
:10348000B04728460821B847FFF7FEFC0520FDF7A6
:10349000EDFBD4E90101FFF74DFEFAE78C030020B4
:1034A000780200200C00002044030020791E000850
:1034B000C11800080021084600F050BB2DE9F0417A
:1034C000C0F3C751A1F17F050446172DA8BFBDE881
:1034D000F0814FF07F471549002D0FDA00F0A6FA72
:1034E000B7EB400F1FD300281DDD002CA8BF002420
:1034F00019DAB4F1004F18BF0D4C14E00D4A22FA4E
:1035000005F6344208BFBDE8F08100F08FFAB7EB52
:10351000400F08D3002806DD002C03DA4FF400002A
:10352000E8400444B4432046BDE8F081CAF2497142
:10353000000080BFFFFF7F0070B5054620F000400F
:10354000C0F1FF400C46C00F05D124F00040C0F18F
:10355000FF40C00F17D0284600F0BEFD6FEAD051E3
:1035600011F0FF0F08BF70BDE917B1EBE07F08BF96
:1035700070BD014664F31E01BDE870400A46014675
:10358000104600F028BE4FF07F40B0EB450F18BF4B
:103590005FEA4400DFD10120FCF78BFEBDE87040FC
:1035A000FFF788BF21F0004201F00043A2F1605212
:1035B000B2F5801F28BFD2F17F6C0BD95FEA001CE7
:1035C00043EAC20242EB507018BF704728BF20F098
:1035D00001007047B2F5801FBCBF184670474FEA24
:1035E000410C1CF5001F02D2084600F0EFBD70B57B
:1035F00000F0B2F800000089FFF7F6BF4FF000407E
:10360000A0F580007047000010B591EA030F48BF95
:1036100083F0004300F1FC80841A71EB030C05D2A7
:10362000121943EB0C03001B61EB0C014FEA115420
:10363000A4EB135CDFF81CE11EEA430F18BF9EEAFF
:10364000445F73D021EA045123EA0E0343F480134C
:10365000DCF1200E32D322FA0CFE10EB0E0023FA1E
:103660000CFE41EB0E01CCF1200E03FA0EFE10EB26
:103670000E00CCF1200E51F10001B1F5801F32D2C5
:1036800001EB045112FA0EF2BDE8104058BF70472A
:10369000401C38BF5FEA420218BF7047002814BFC1
:1036A00020F0010041F100014FEA410313F5001F32
:1036B00038BF7047A1F1C04100F09CB8012A43EB2C
:1036C0000302ACF1200CDCF11F0E32BF4FF0000EF4
:1036D00023FA0CF310EB030041EB0451B4EB115F40
:1036E000D0D0A1EB045101F58011490801EB045140
:1036F0005FEA30000ED350F1000038BF12FA0EFE20
:1037000008D1BDE81040C9E7401C38BF5FEA42025B
:10371000CAD1C3E7BDE810404FEA410313F5001FCB
:1037200038BF7047A1F1C04100F064B89EEA445F21
:1037300008D011EA5E0FBDE8104004BF01F000415F
:1037400000207047BDE8104070B500F005F800BFDC
:1037500064FBBE3E0000E0FF0EF1020E2EF0030EF1
:103760005EF8046B364205D4012A43EB030515F5D8
:10377000001F12D8012841EB010C1CF5001F0CD8CA
:103780000ED14FEAD17C0CEB4C0C0CF1020C15F570
:10379000001F08BF4CEBD37C04E04FF0080C01E0A5
:1037A0004FEAD37C0CEB4C0526FA05F606F007062B
:1037B000B6F1040C06D20EEB860CBDE870404CF05E
:1037C000010C6047DFE80CF0090B02024FF00041EA
:1037D000A1F500214FF0000070BD194610460128E8
:1037E00051EB010418BFD4F5001484BF002001F090
:1037F000004170BD0808A0F500114FEA3101704783
:1038000010B591EA030F48BF83F000433FF504AFC2
:10381000841A71EB030C07D28CF0004C121943EBA5
:103820000C03001B61EB0C014FEA1154A4EB135C79
:10383000DFF89CE11EEA430F18BF9EEA445F00F0E8
:10384000B08021EA045123EA6E035242C3EB6E03B7
:1038500038BF5B1EDCF1200E25D322FA0CFE10EBE4
:103860000E0043FA0CFE41EB0E01CCF1200E03FAE0
:103870000EFE10EB0E00CCF1200E51F1000129D408
:1038800001EB045112FA0EF2BDE8104058BF704728
:10389000401C1CBFB2F1004F704700280CBF491CF0
:1038A00020F00100704712EB020E43EB030218BF39
:1038B0004FF0010E4EEA4202ACF1200CDCF11E0E7C
:1038C00054D943FA0CFE10EB0E00CCF11E0E51F150
:1038D000FF31D5D50EF1010E12FA0EFE404141EB3B
:1038E000010101EB445C5FEA5C5C10D901EB04511F
:1038F00010EBDE7038BFBEF1004FBDE8104018BFBE
:10390000704700280CBF491C20F00100704730D2DE
:103910004FEAD42C24F4006411F500111BD0B1FA45
:1039200081F20B3AA41AA41ED2F12003914030FA7E
:1039300003F31943904001EBCC7101EB0451002CCF
:10394000BDE81040A8BF704701F1C04101F000413F
:103950004FF000007047B0FA80F310FA03F100D185
:1039600010BDE41A173C4805C90AE4E701EB04510D
:1039700010BD49104FEA300001EB0451BDE8104082
:1039800002E04FF0000170474A0008BF0042F8D043
:10399000B2F5001F28BF704701F000414FF0000052
:1039A00070479EEA445F07D011EA5E0FBDE8104001
:1039B00004BF002100207047BDE8104070B5FFF73C
:1039C000CBFE00BF40DFF63E104683F0004170475B
:1039D0000000E0FF43004FEAD30C4FEA3C0C4340A9
:1039E0001FBF40070CF1605113F0FE4F70471CF0F1
:1039F000006F03D10CF00041002070470CF0004331
:103A000043EA507040EACC0010B500F01EFB00BF46
:103A1000000000924FEA0001FFF7ECBE4FF00041BA
:103A2000A1F500214FF000007047000090EA010F5F
:103A300048BF81F0004100F1E083421A3CBF801A88
:103A400089184FEAD052A2EBD1534FF07F4C1CEAB9
:103A5000410F18BF9CEA026F00F03B804FF0004C12
:103A60004CEA00204CEA012121FA03FC10EB0C0C7B
:103A70001ED202F1FF325FEA1C2040EBC25038BF79
:103A800070471CF07F0F4FEA400C18BFBCF17F4F0E
:103A900038BF7047C3F12003994008BF20F00100F0
:103AA000BCF17F4F38BF7047A0F1C04000F08EBB23
:103AB0004FEA3C00000A40EBC25028BF1CF0FF0F49
:103AC0004FEA400CE6D018BFBCF17F4F38BF7047BB
:103AD000EAE79CEA026F05D010EA5C0F08BF00F02D
:103AE0000040704710B500F0B0FA00BF64FBBE3E66
:103AF00010B500F0F5F80CBF0120002010BD10B586
:103B000000F0EEF814BF0120002010BD10B500F049
:103B1000B3F98CBF0120002010BD10B500F0ACF946
:103B20002CBF0120002010BD10B500F0D9F994BFC2
:103B30000120002010BD10B500F0D2F934BF0120E3
:103B4000002010BD401058BFC0F14040491058BF80
:103B5000C1F140418142EFF3008070474FF47F0C88
:103B60001CEAD0121EBF1CEAD11392EA0C0F93EA92
:103B70000C0F00F0858090EA010F48BF42F480727C
:103B800040F4000C41F400002CF07F4120F07F4015
:103B900000B5A2EB030281420FF2081CACEB504EC1
:103BA0009EF800E0C0F100004FEA4E0E00FB0EFC54
:103BB00038BF49004FEA2C1C0CFB0EF34FEACE1E17
:103BC0000EEB635E4FEA112C0EFB0CFC4FEAC12199
:103BD0004FEA1C5300FB031102F5FA024FEA112CC5
:103BE0000EFB0CFC4FEA01314FEADC4C00FB0C11E0
:103BF00042EB2242C14228BF09184CEB03335DF867
:103C000004EB10EB410143EBC250B2F57C0F38BF1F
:103C1000704729D512F0F00F1CBF00F1C04000F032
:103C200000407047008182838485868788898B8CD9
:103C30008D8E8F919293959697999A9C9D9FA0A215
:103C4000A3A5A7A8AAACAEB0B2B3B5B7B9BCBEC065
:103C5000C2C5C7C9CCCED1D4D7D9DCDFE2E6E9EC06
:103C6000F0F3F7FAFE0000004FEA400C0CF1807C04
:103C7000BCF17E4F28BF7047B0F1C04000F0A6BA3B
:103C80000CEAD11390EA010F48BF42F480726245FA
:103C900038BF634507D213F47F0F16D080EA0100C6
:103CA00000F00040704710B500F0CFF9097EFC3EEF
:103CB00000F005B880EA010000F00040704780EA9B
:103CC000010000F0004000F081BA12F47F0F04BF41
:103CD0000248704780EA010000F078BA0000C07F17
:103CE00050EA010C00F113801CF5000F58BFBCF521
:103CF000000F01D48842704707D710F5000F58BF56
:103D000011F5000F15D488427047894270471CF5A1
:103D1000000F04D5BCF5000FF7D5814270474FF076
:103D2000807C1CEB400F38BF1CEB410F01D281425D
:103D3000704710B500F089F9922449004FF0005007
:103D40004FF08051FFF7FEBE41000B0ED3F19E02F3
:103D500008D950F400034FEA032323FA02F048BFC6
:103D60004042704710B500F070F900BF49922480BE
:103D7000002070476FF0004282EA20007047000088
:103D8000C10DD1F19E0206DB4FEA002343F0004350
:103D900023FA02F07047004207D54FEA4001B1F123
:103DA000FE4F02D24FF00000704710B500F04DF901
:103DB00049922480002070476FEA2000704700007D
:103DC00010F0004148BF4042B0FA80F310FA03F20D
:103DD000C3F19D030BD051EAC35101EB12205306EE
:103DE00038BF704700F1010008BF20F001007047A4
:103DF0004FF07E5209E011F0004204D54042C1F17B
:103E0000000138BF491E42F07E5202F170620B0081
:103E100012BF20235FEA00017047B1FA81FC01FA6A
:103E20000CF1A3EB0C0320FA03FC41EA0C0102EBBA
:103E3000C352C3F1200310FA03FC5CEA416C42EB6D
:103E4000112018BF5FF0806C28BF20F00100704780
:103E5000B0FA80F310FA03F2C3F19D030AD0D9053A
:103E600001EB1220530638BF704700F1010008BF74
:103E700020F001007047000050EA010C00F11380AF
:103E80001CF5000F58BFBCF5000F01D488427047E5
:103E900007D710F5000F58BF11F5000F15D4884251
:103EA0007047894270471CF5000F04D5BCF5000F20
:103EB000F7D5814270474FF0807C1CEB400F38BF34
:103EC0001CEB410F01D28142704710B500F0BDF8E4
:103ED000922449004FF080504FF00051FFF732BE5E
:103EE00050EA010C00F113801CF5000F58BFBCF51F
:103EF000000F01D48842704707D710F5000F58BF54
:103F000011F5000F15D488427047894270471CF59F
:103F1000000F04D5BCF5000FF7D5814270474FF074
:103F2000807C1CEB400F38BF1CEB410F01D281425B
:103F3000704710B500F089F8922449004FF0005006
:103F40004FF08051FFF7FEBD4FF47F0C1CEAD012FA
:103F50001EBF1CEAD11392EA0C0F93EA0C0F00F07B
:103F6000478090EA010F48BF42F480724FF0004C46
:103F70004CEA00204CEA012102EB0302A0FB0113F2
:103F8000A2F50002002918BF43F001035B0028BF1F
:103F90004FEA330342EB22425FEA132C4CEBC25050
:103FA0002EBFBCEB436FB2F57C0F70474FEA036C3A
:103FB000BCF1004F08BF20F00100B2F57C0F38BF04
:103FC00070470BD582F0FF0212F5803FC8BF7047E3
:103FD00000F1C040D8BF00F00040704700F5000C71
:103FE0005FEA4C0C48BF7047B0F1C04000F0EEB83B
:103FF0000CEAD11390EA010F48BF42F48072624587
:1040000038BF634504D280EA010000F000407047E9
:1040100010B500F01AF800BF8900013E00F007B8A3
:1040200000F009B85FEA410C5FEA1C6C08D080EA36
:10403000010000F0CBB85FEA400C5FEA1C6CF6D1DF
:104040004FF00040A0F5800070470EF1020E2EF0F8
:10405000030E5EF8044B244204D44FEA4102B2F14D
:104060007F4F11D84FEA4003B3F17F4F0CD80ED1E8
:104070004FEAD07C0CEB4C0C0CF1020CB2F17F4FF0
:1040800008BF4CEBD17C04E04FF0080C01E04FEA94
:10409000D17C0CEB4C0324FA03F404F00704B4F1D4
:1040A000040C06D20EEB840CBDE810404CF0010C61
:1040B0006047DFE80CF0070802024FF00040A0F56F
:1040C000800010BD0846420018BFD2F1807288BF40
:1040D00000F0004010BD00004FF07F4C3CEA41036F
:1040E00018BF3CEA400200F062804FF47F0C0CEAFB
:1040F000D11310F0004F18BF43F005031CEAD01293
:1041000018BF13EA0C0F00F057804FF0004C4CEA38
:1041100000204CEA0121A3F580339A4210DD23F000
:104120000203B0F1004F06D343F00203401ABCBFB4
:10413000404283F001034FEA4000A2F58032ECE7F1
:104140004FEA224CBCEB234F08DB884206D31CD03D
:10415000A0EB4100C0F1000083F0010340001DD23C
:1041600017D40DD0B0FA80FC0CF1010C00FA0CF061
:10417000A2EB0C42D2F1000C12DB4FEAC370704785
:104180004FEA437000F00040704713F0020FE5D093
:10419000DEE74FEA4000B2F58032EBDD002AE9DDD0
:1041A0004FEAC21242EA502040EAC370704710B58D
:1041B000FFF74BFFEDFFFF3E1CEAD11F02D000F0DE
:1041C00000407047004870470000C07FFF2141EA6F
:1041D000D050C005704780F0004090EA010F7FF595
:1041E0002CAC81F0004100F008B8000090EA010F0B
:1041F00048BF81F000413FF520AC421A04D882F05C
:104200000042A0EB020011444FEAD052A2EBD1537E
:104210004FF07F4C1CEA410F18BF9CEA026F4AD056
:104220004FF0004C4CEA00204CEA012121FA03FC3B
:10423000B0EB0C0C0FD412F0FE0F36D05FEA4C003E
:104240001DD5001240EBC25038BF70471CF03F0F25
:1042500018BF70470BE05FEA1C20A2F1010240EB9F
:10426000C25038BF70471CF07F0F18BF7047C3F1B2
:104270002003994014BF401E20F0010070474FEA10
:104280001223800808BF7047B0FA80FCA2EB0C0232
:10429000CCF1280C60FA0CF093EA122F04BF00EB6B
:1042A000C25070474FEAC3707047130A5FEADC10D0
:1042B00008BF7047F6E79CEA026F04D010EA5C0F73
:1042C00008BF0020704710B5FFF7BFFE40DFF63E85
:1042D00081F0004070470000000000000000010273
:1042E000030406070809000000000102030400009F
:1042F000000000004F0000009E000000ED000000E4
:104300003C0100008B010000D901000028020000E0
:1043100077020000C60200001503000063030000DE
:10432000B2030000000400004F0400009D040000E0
:10433000EC0400003A05000088050000D6050000E6
:104340002406000072060000C00600000E070000F0
:104350005B070000A9070000F60700004308000003
:1043600090080000DD0800002A090000770900001D
:10437000C30900000F0A00005C0A0000A80A000040
:10438000F40A00003F0B00008B0B0000D60B00006E
:10439000210C00006C0C0000B70C0000010D0000A7
:1043A0004C0D0000960D0000E00D0000290E0000ED
:1043B000730E0000BC0E0000050F00004E0F000041
:1043C000960F0000DF0F0000271000006E100000A5
:1043D000B6100000FD100000441100008B11000019
:1043E000D1110000171200005D120000A21200009F
:1043F000E81200002D13000071130000B613000036
:10440000F91300003D14000081140000C4140000E2
:1044100006150000491500008B150000CC150000A2
:104420000E1600004F1600008F160000CF16000079
:104430000F1700004F1700008E170000CD17000067
:104440000B1800004918000087180000C41800006D
:10445000011900003D19000079190000B51900008C
:10446000F01900002B1A0000661A00009F1A0000C5
:10447000D91A0000121B00004B1B0000831B000018
:10448000BB1B0000F21B0000291C0000601C000088
:10449000961C0000CB1C0000001D0000351D000014
:1044A000691D00009D1D0000D01D0000031E0000BE
:1044B000351E0000671E0000981E0000C91E000087
:1044C000FA1E0000291F0000591F0000881F00006D
:1044D000B61F0000E41F0000112000003E20000075
:1044E0006A20000096200000C1200000EC2000009F
:1044F00016210000402100006921000092210000E7
:10450000BA210000E1210000082200002F22000053
:10451000552200007A2200009F220000C3220000E2
:10452000E72200000A2300002D2300004F23000093
:104530007023000091230000B2230000D12300006B
:10454000F12300000F2400002D2400004B24000064
:104550006824000084240000A0240000BB24000084
:10456000D5240000EF2400000925000022250000CA
:104570003A25000052250000692500007F25000033
:1045800095250000AA250000BF250000D3250000C6
:10459000E6250000F92500000B2600001D2600007E
:1045A0002E2600003E2600004E2600005D2600005C
:1045B0006C2600007A260000872600009426000062
:1045C000A0260000AB260000B6260000C026000092
:1045D000CA260000D3260000DB260000E3260000E8
:1045E000EA260000F1260000F7260000FC26000065
:1045F0000127000005270000082700000B27000006
:104600000D2700000F2700001027000010270000D2
:10461000404600080000002090000000280100082B
:10462000D0460008900000209009000044010008D6
:10463000ADE6FFFFCDE6FFFF000000000000000038
:104640000100000010000000000000000000000059
:10465000000080400000000000000000000000009A
:104660000200000001000000000000000000000047
:10467000000000000000000000000000000000003A
:10468000000000000000000000000000000000002A
:10469000000000000000000000000000000000001A
:1046A0000000000000004041000000000000000089
:1046B00000000000000000000000000000000000FA
:1046C000671000000024F400EC020020000000004D
:04000005080000ED02
:00000001FF
